:100000000C944F000C946C000C946C000C94D20176
:100010000C946C000C946C000C946C000C946C00B0
:100020000C946C000C946C000C946C000C94020208
:100030000C946C000C946C000C94E3050C946C0014
:100040000C946C000C946C000C94A4070C946C0041
:100050000C946C000C946C000C946C000C946C0070
:100060000C946C000C946C0053797374656D206F64
:100070006E6C696E652E0D0A000D0A2A2A2A2A2A3C
:100080002A2A2A424F4F54494E4720434F4E544943
:100090004B492A2A2A2A2A2A2A2A2A0D0A00112406
:1000A0001FBECFEFD8E0DEBFCDBF12E0A0E0B1E0D1
:1000B000EEEFF7E102C005900D92A230B107D9F73B
:1000C00023E0A2E0B2E001C01D92A23AB207E1F73C
:1000D0000E9477080C94FD0B0C940000BF92CF9205
:1000E000DF92EF92FF920F931F93CF93DF93CDB7E1
:1000F000DEB7E2970FB6F894DEBF0FBECDBF7C012E
:10010000B62ED42EC52EFC0180819181009741F03E
:10011000819709F44BC0F7011182108283E0CCC0B3
:100120000E9440059F938F9300E311E01F930F936C
:100130000E94990887E391E00E94D5080E946C0113
:100140000E9440059F938F931F930F930E949908DD
:100150008DE491E00E94D5088FE691E00E94A7010E
:100160000E9440059F938F931F930F930E949908BD
:100170008FE791E00E94D5080E9418030E94400575
:100180009F938F931F930F930E94990888E991E0A2
:100190000E94D5080FB6F894DEBF0FBECDBF81E236
:1001A00090E0F7019183808381E086C00E94400542
:1001B0009F938F9300E311E01F930F930E94990880
:1001C0001F92BF928CEE91E09F938F930E949908AB
:1001D0000FB6F894DEBF0FBECDBF80919003B8126A
:1001E000DECF809102029091030201969093030268
:1001F000809302020E9440059F938F931F930F9359
:100200000E949908CF92DF92809103028F93809190
:1002100002028F938BEA91E09F938F930E9499083B
:100220000E9440059F938F931F930F930E949908FC
:10023000AD2DBC2DFD0101900020E9F73197EA1B9F
:10024000FB0BFF93EF9388EB91E09F938F930E94BA
:100250009908CF92DF92809103028F9380910202DE
:100260008F938BEC91E09F938F931F9282E38F93F8
:10027000CE0101966C019F938F930E940509C601E0
:100280000E94A7010E9440059F938F931F930F9395
:100290000E9499080FB6F894DEBF0FBECDBFDF9263
:1002A000CF928BED91E09F938F930E9499080F90CE
:1002B0000F900F900F9073CFE2960FB6F894DEBFB9
:1002C0000FBECDBFDF91CF911F910F91FF90EF90A7
:1002D000DF90CF90BF9008952398229A2A9AE8E65B
:1002E000F0E0808181608083EBE6F0E080818860CF
:1002F0008083E1E8F0E08081886080838081816094
:100300008083EFE6F0E080818D7F80830895F8940C
:100310002A98EFE9F1E03197F1F700C0000098E08A
:1003200080FF02C02A9A01C02A98EFE9F1E03197D4
:10033000F1F700C000008695915091F72A9A8FE955
:1003400091E00197F1F700C0000078940895CF93F1
:10035000DF93009751F0EC018991882319F00E94F6
:100360008701FACF80E090E002C08FEF9FEFDF912E
:10037000CF9108959091060280910502981781F01F
:10038000E0910502F0E0E95FFD4F808120910502D8
:1003900030E02F5F3F4F2F733327209305020895DE
:1003A00080E008951F920F920FB60F9211248F9341
:1003B0009F931B9920C08091490290914A02892BFA
:1003C000D1F481E090E090934A02809349028091B9
:1003D00068008E7F8093680083EC99E09093890099
:1003E00080938800109285001092840080916F00A5
:1003F000826080936F009F918F910F900FBE0F903E
:100400001F9018951F920F920FB60F9211242F93E1
:100410003F934F935F936F937F938F939F93AF938C
:10042000BF93EF93FF9382E896E0909389008093C7
:1004300088008091490290914A028230910569F0CA
:100440008330910569F1019709F048C01092480284
:100450001092470282E090E01EC0809147028830EF
:10046000A0F41B9B0DC0309147022091480281E00F
:1004700090E001C0880F3A95EAF7822B80934802FA
:10048000809147028F5F80934702809147028830B6
:1004900098F183E090E090934A02809349022CC047
:1004A0001B9B1CC08091060290E001968F739927D8
:1004B00020910502281779F0E0910602F0E0909172
:1004C0004802E95FFD4F90838093060280914802C5
:1004D0000E94F30203C081E08093040210924A025A
:1004E0001092490280916F008D7F80936F00809100
:1004F0006800816080936800FF91EF91BF91AF9198
:100500009F918F917F916F915F914F913F912F912B
:100510000F900FBE0F901F901895CF93DF93EC01B3
:10052000888199818836910579F08A37910509F497
:1005300053C0892B09F04CC00E94DF0380939003C5
:100540001092CD021092CC028EE493E00E94F90446
:100550008F3F2FEF920719F488E690E036C0209184
:10056000CC023091CD028A30910579F02F373105D8
:100570005CF7A9014F5F5F4F5093CD024093CC02CF
:10058000F901E45BFD4F8083DFCFC90101969093B1
:10059000CD028093CC02F901E45BFD4F10824CE464
:1005A00052E06091900380E090E00E94660440E099
:1005B00050E065E880915303909154030E946604D3
:1005C000892B09F0BDCF8AE790E09983888307C023
:1005D0001982188283E004C0653809F4B1CF81E044
:1005E000DF91CF9108958D3001F1682F80914B02FA
:1005F00081110AC08EE493E00E94D904892B71F422
:1006000081E080934B020AC06A3041F48EE493E0AB
:100610000E94D904892B11F010924B0288E091E0DE
:100620000E94BB0481E090E0089580E090E008958E
:1006300040E86EEC72E08EE493E00E94D10460E04A
:1006400070E088E091E00C949A041F93CF93DF93BD
:10065000DC011296ED91FC9113973097E1F0162F83
:10066000EC01909354038093530382E08E83CD0179
:1006700004960995082E000C990B0297029710F02A
:10068000133839F4BE01CE01DF91CF911F910C9444
:10069000550381E08E83DF91CF911F910895FC0176
:1006A000268120FD0C9425030895CF92DF92EF92CE
:1006B000FF920F931F93CF93DF93E0905303F0903B
:1006C00054030091550310915603F801E817F907F8
:1006D00039F0309709F44BC00190F081E02DF6CF4E
:1006E000009709F444C06B01EC018E81882309F165
:1006F0001E820115110561F00C171D0729F0AE01CE
:1007000067E8C8010E944F03F80100811181F1CF11
:10071000EA81FB81309769F0CC15DD0551F0D0936B
:100720005403C093530340E050E063E8CE010496C5
:100730000995E0915503F0915603CE17DF0741F478
:100740008881998190935603809355030CC0FC01D6
:10075000309749F080819181C817D907C1F7888106
:10076000998191838083F0925403E0925303DF9147
:10077000CF911F910F91FF90EF90DF90CF90089550
:100780001F93CF93DF9310925C03C0915503D091D8
:10079000560311E0209779F08F81882341F01E8362
:1007A0001F8240E050E062E8CE010E9425030990DC
:1007B000D881C02DEFCFDF91CF911F910895809107
:1007C000870391E0980F90938703089560915303F6
:1007D000709154030C9455038AE880938703109218
:1007E0008503109286031092910310925603109283
:1007F00055031092540310925303089580915C03A3
:1008000081110E94C00390918603992309F44EC080
:10081000E09185032E2F30E085E0E89FF001112460
:10082000E35AFC4F608160935B0341815281509396
:100830005A03409359030380F481E02D2F5F3F4F0B
:100840002770332720938503915090938603309728
:1008500031F58091550390915603909358038093FE
:1008600057038091570390915803892BF9F0809199
:100870005C0381110E94C0034091590350915A03B7
:1008800060915B0380915703909158030E944F033E
:10089000E0915703F091580380819181DECF613858
:1008A00011F481E08683CF010E944F0380915C03A5
:1008B0002091860390E0820F911D089580915C0342
:1008C0002091860390E0820F911D08959C019091E4
:1008D00086039830D1F0E0918503E90FE77085E059
:1008E000E89FF0011124E35AFC4F60835283418357
:1008F0003483238381E0890F809386039091910351
:10090000981730F48093910303C081E090E008953C
:1009100080E090E00895CF93DF93C0915303D0918E
:1009200054030E944F03D0935403C0935303DF91A9
:10093000CF910895AB013091550320915603E32FD9
:10094000F22FE817F907B1F0309721F00190F0810C
:10095000E02DF7CF009771F0FC0130832183909355
:1009600056038093550321E026831582148261E8A3
:100970000C948B040895009749F0FC0126812150C6
:10098000223020F421E0278320935C03089521E0A6
:1009900030E0FC018681811102C020E030E0C90115
:1009A0000895FC0171836083415042831382148255
:1009B0000895FC018381228130E090E04481DC01D4
:1009C000A41BB109AD01422353232417350771F04D
:1009D00020813181D901A80FB91F6C9383818F5F6A
:1009E00092818923838381E090E0089580E090E004
:1009F0000895FC0134812281838190E0432F50E0EF
:100A0000841B950B622F70E086239723892B59F066
:100A100080819181DC01A40FB51F8C913F5F23235E
:100A2000248390E008958FEF9FEF0895FC01828169
:100A300090E001960895FC01238130E08481281B19
:100A40003109828190E082239323089546E067E68E
:100A500080E00E94CF0780E00E94240863EF72E0EC
:100A600080E00C94FD07F89416BC83EF87BD82E00C
:100A700084BD94E095BD15BA80936E007894089576
:100A80008091890390918A032091890330918A0390
:100A900082179307A9F708950F931F936091960308
:100AA0007091970380919803909199030091960318
:100AB0001091970320919803309199036017710763
:100AC0008207930759F71F910F910895609396033A
:100AD0007093970380939803909399030895CF930D
:100AE000DF93EC010E944005C80FD91F0E9440050A
:100AF0008C1B9D0B97FDFACFDF91CF910895009746
:100B000031F0880F991F880F991F0197F1F7089509
:100B100020EA3FE0019720F0F9013197F1F7FACF91
:100B20000895CF92DF92EF92FF92EFB7F894209161
:100B3000890330918A03280F391F30938A03209349
:100B4000890320918803820F911D40919203509157
:100B5000930360919403709195039C012F3F31059D
:100B6000C1F0B8F03A95C0909603D0909703E0900A
:100B70009803F0909903FFEFCF1ADF0AEF0AFF0AFC
:100B8000C0929603D0929703E0929803F092990353
:100B9000E5CF292F3327420F531F611D711D40934D
:100BA0009203509393036093940370939503322FB1
:100BB0002227821B930B80938803EFBFFF90EF9057
:100BC000DF90CF9008951F920F920FB60F921124CD
:100BD0002F933F934F935F936F937F938F939F9345
:100BE000AF93BF93EF93FF938091890390918A0312
:100BF000019690938A0380938903809188038F5F85
:100C0000809388030E946407892B11F00E94770665
:100C1000FF91EF91BF91AF919F918F917F916F91D4
:100C20005F914F913F912F910F900FBE0F901F90AA
:100C30001895CF93DF93C0E1D1E089919991009706
:100C400029F060E070E00E949A04F7CFDF91CF9125
:100C50000895CF93DF93EC0189919991009729F042
:100C600060E070E00E949A04F7CFDF91CF91089581
:100C7000CF93DF93EC0189919991009719F00E942D
:100C8000E603F9CFDF91CF91089580918D03909184
:100C90008E03892B29F410928C0310928B030895F4
:100CA0000E944005E0918D03F0918E0320813181F7
:100CB00042815381240F351F281B390B0480F58195
:100CC000E02D309769F06081718142815381460F38
:100CD000571F481B590B4217530780F79A01EECF55
:100CE000820F931F90938C0380938B03089586E16A
:100CF00091E00C94BB04EF92FF920F931F93CF935C
:100D0000DF938C01FC0180819181009799F08A35F5
:100D10009105D9F0F8011182108283E068C08681C4
:100D200097814817590709F049C00480F581E02DE3
:100D30003097A9F710928E0310928D038AE590E008
:100D4000F8019183808381E052C0673891F1623865
:100D5000A9F7C0918D03D0918E03E12CF12C20973F
:100D600069F3CE010E944D08892BF1F0AE0168E8CD
:100D70008E819F810E946604892BA1F41F821E82AE
:100D80008C819D81E114F10421F0F7019583848326
:100D900004C090938E0380938D031D821C820E9459
:100DA0004506D7CF0E9477067E010C80DD81C02DDD
:100DB000D6CFE0918D03F0918E03BACFF0938E03DE
:100DC000E0938D03A481B581109709F4B7CF1696EF
:100DD0008D919C9117974817590739F414968D9166
:100DE0009C91159795838483EDCFFD01EBCFDF9127
:100DF000CF911F910F91FF90EF900895CF93DF93C4
:100E0000EC010E9477062E813F8190918D038091A5
:100E10008E03232B59F0E92FF82F309739F0EC1778
:100E2000FD0781F00480F581E02DF7CF2091530379
:100E3000309154033F832E839C838D83D0938E0304
:100E4000C0938D03DF91CF910C944506CF93DF9330
:100E5000EC010E942D08CE01DF91CF910C94FE068B
:100E6000CF93DF93EC010E943908CE01DF91CF913F
:100E70000C94FE06CF93DF93EC010E944308CE0151
:100E8000DF91CF910C94FE06FC0120813181620F2D
:100E9000731F718360830C94450621E030E0FC01F0
:100EA00086819781892B11F020E030E0C9010895F7
:100EB000FC012081318182819381820F931F0895EB
:100EC000FC0180819181089581E090E020918D0363
:100ED00030918E03232B11F480E090E008958091EF
:100EE0008D0390918E03892B29F080918B03909133
:100EF0008C03089580E090E00895CF93DF93EC0198
:100F0000E0918D03F0918E03E817F90769F48C8165
:100F10009D8190938E0380938D030DC08481958174
:100F2000C817D90721F0FC013097C1F706C08C81A2
:100F30009D81958384830E9445061D821C821F82A9
:100F40001E82DF91CF9108951F920F920FB60F92DC
:100F500011242F933F934F935F936F937F938F93BE
:100F60009F93AF93BF93EF93FF938091C600E0915F
:100F70009A03F0919B03309709F00995FF91EF9147
:100F8000BF91AF919F918F917F916F915F914F91A1
:100F90003F912F910F900FBE0F901F9018958111C8
:100FA0000DC01092C5006093C40088E98093C10011
:100FB0004093C20010929B0310929A0308958111EE
:100FC00006C08091C00085FFFCCF6093C6000895E5
:100FD000CF93C82F8A3031F46DE080918F030E9447
:100FE000DF0702C08D3029F06C2F80918F030E94A3
:100FF000DF0780E090E0CF910895811104C07093E5
:101000009B0360939A0308951F93CF93DF93182F48
:10101000EB018881882369F08A3021F46DE0812F0B
:101020000E94DF0769916D30A1F3812F0E94DF07D5
:10103000F0CFDF91CF911F9108959091C00095FF5F
:10104000FCCF8093C600089580938F038EE191E0DA
:1010500090939F0380939E030895CF93DF93EC01B9
:101060007B836A830E94400599838883DF91CF91B7
:101070000895FC012081318182819381820F931F29
:10108000918380830895CF93DF93EC010E94400504
:1010900099838883DF91CF910895CF93DF93EC01FB
:1010A0000E94400528813981821B930B9C012F5F90
:1010B0003F4F81E090E04A815B814217530710F077
:1010C00080E090E0DF91CF910895CF93DF93FC0112
:1010D000C081D18182819381C80FD91F0E944005B0
:1010E0009E01281B390BC901DF91CF9108950E9401
:1010F00026050E9433050E94EC030E9419062D98D4
:101100000E9418038CE291E00E94290689E790E092
:101110009F938F930E94AF0888E690E09F938F93F0
:101120000E94AF080F900F900F900F900E94FE0347
:10113000FDCFA0E0B0E0EFE9F8E00C94D60BAE01F3
:101140004B5F5F4FFA0161917191AF0180919E03F6
:1011500090919F030E943509E2E00C94F20BA0E00D
:10116000B0E0E5EBF8E00C94D40BAE01495F5F4FC3
:10117000DA016D917D91AD010CE913E0F8018281F6
:101180009381DC0113962C911397286013962C936E
:101190000E943509D8011296ED91FC911397238195
:1011A000277F2383E4E00C94F00B0F931F93CF93DE
:1011B000DF93E0919E03F0919F03238121FF1BC0E9
:1011C0008C01D0E0C0E0F80181918F0160919E0315
:1011D00070919F03DB011896ED91FC91199788237C
:1011E00031F00995892B79F3DFEFCFEFECCF8AE06F
:1011F0000995892B19F08FEF9FEF02C08D2F9C2F3F
:10120000DF91CF911F910F910895AEE0B0E0EBE038
:10121000F9E00C94D40B0D891E898F89988D26E0F6
:101220002C831A83098397FF02C080E090E801971E
:101230009E838D83AE01455E5F4F698D7A8DCE01B1
:1012400001960E9435094D815E8157FD0AC02F81AC
:101250003885421753070CF49A01F801E20FF31F87
:1012600010822E96E4E00C94F00BABE0B0E0EBE3E0
:10127000F9E00C94C60B6C017B018A01FC0117821A
:101280001682838181FFCCC1CE0101963C01F6011B
:101290009381F70193FD859193FF81917F018823CD
:1012A00009F4BAC1853239F493FD859193FF819198
:1012B0007F01853229F4B60190E00E942C0BE7CF24
:1012C000912C212C312CFFE1F315D8F08B3279F0E1
:1012D00038F4803279F08332A1F4232D20611DC0CF
:1012E0008D3261F0803369F4232D216016C0832D87
:1012F0008260382EE32DE4603E2E2AC0F32DF86084
:101300001DC037FC2DC020ED280F2A3040F08E3252
:10131000B9F436FC81C1232D2064322E19C036FE6B
:1013200006C08AE0989E200D1124922E11C0EAE09A
:101330002E9E200D1124222EF32DF0623F2E08C088
:101340008C3621F4832D8068382E02C0883641F413
:10135000F70193FD859193FF81917F018111B3CFB7
:10136000982F9F7D9554933028F40C5F1F4F9FE377
:1013700099830DC0833631F0833771F0833509F0DE
:1013800059C021C0F801808189830E5F1F4F8824D6
:101390008394912C530113C02801F2E04F0E511C8D
:1013A000F801A080B18036FE03C0692D70E002C054
:1013B0006FEF7FEFC5010E94210B4C018201F32DDD
:1013C000FF773F2E16C0280122E0420E511CF80183
:1013D000A080B18036FE03C0692D70E002C06FEFBF
:1013E0007FEFC5010E94160B4C01F32DF0683F2ED4
:1013F000820133FC1BC0822D90E088169906B0F460
:10140000B60180E290E00E942C0B2A94F4CFF50103
:1014100037FC859137FE81915F01B60190E00E9413
:101420002C0B21102A9421E0821A91088114910436
:1014300071F7E8C0843611F0893641F5F80137FEBE
:1014400007C060817181828193810C5F1F4F08C04A
:1014500060817181072E000C880B990B0E5F1F4F66
:10146000F32DFF763F2E97FF09C0909580957095DC
:1014700061957F4F8F4F9F4FF0683F2E2AE030E0FD
:10148000A3010E94680B882E861845C0853731F469
:10149000232D2F7EB22E2AE030E025C0932D997F98
:1014A000B92E8F36C1F018F4883579F0B5C0803781
:1014B00019F0883721F0B0C0E92FE061BE2EB4FEEC
:1014C0000DC0FB2DF460BF2E09C034FE0AC0292FC9
:1014D0002660B22E06C028E030E005C020E130E0F2
:1014E00002C020E132E0F801B7FE07C060817181DF
:1014F000828193810C5F1F4F06C06081718180E003
:1015000090E00E5F1F4FA3010E94680B882E861883
:10151000FB2DFF773F2E36FE0DC0232D2E7FA22EF2
:10152000891458F434FE0BC032FC09C0832D8E7E22
:10153000A82E05C0B82CA32C03C0B82C01C0B92C10
:10154000A4FE0FC0FE01E80DF11D8081803321F45F
:101550009A2D997EA92E09C0A2FE06C0B394B39419
:1015600004C08A2D867809F0B394A3FC11C0A0FEB4
:1015700006C0B21488F4280C922C9B180EC0B2142A
:1015800060F4B60180E290E00E942C0BB394F7CF98
:10159000B21418F42B1802C0982C212CA4FE10C0F1
:1015A000B60180E390E00E942C0BA2FE17C0A1FCC4
:1015B00003C088E790E002C088E590E0B6010CC067
:1015C0008A2D867859F0A1FE02C08BE201C080E22C
:1015D000A7FC8DE2B60190E00E942C0B891438F430
:1015E000B60180E390E00E942C0B9A94F7CF8A9486
:1015F000F301E80DF11D8081B60190E00E942C0BF3
:101600008110F5CF222009F442CEB60180E290E0AD
:101610000E942C0B2A94F6CFF6018681978102C096
:101620008FEF9FEF2B96E2E10C94E20BFC0105900B
:10163000615070400110D8F7809590958E0F9F1FD4
:101640000895FC016150704001900110D8F7809519
:1016500090958E0F9F1F08950F931F93CF93DF9345
:10166000FB01238121FD03C08FEF9FEF2CC022FFE0
:1016700016C046815781248135814217530744F4AF
:10168000A081B1819D012F5F3F4F318320838C93D7
:10169000268137812F5F3F4F3783268314C08B010C
:1016A000EC01FB010084F185E02D0995892BE1F621
:1016B000D80116968D919C911797019617969C9339
:1016C0008E931697CE01DF91CF911F910F910895C0
:1016D000FA01AA27283051F1203181F1E8946F9363
:1016E0006E7F6E5F7F4F8F4F9F4FAF4FB1E03ED009
:1016F000B4E03CD0670F781F891F9A1FA11D680FA7
:10170000791F8A1F911DA11D6A0F711D811D911DD9
:10171000A11D20D009F468943F912AE0269F11244E
:101720003019305D3193DEF6CF010895462F4770B2
:10173000405D4193B3E00FD0C9F7F6CF462F4F700D
:10174000405D4A3318F0495D31FD4052419302D06B
:10175000A9F7EACFB4E0A695979587957795679511
:10176000BA95C9F700976105710508959B01AC0111
:101770000A2E06945795479537952795BA95C9F738
:10178000620F731F841F951FA01D08952F923F9213
:101790004F925F926F927F928F929F92AF92BF9281
:1017A000CF92DF92EF92FF920F931F93CF93DF932D
:1017B000CDB7DEB7CA1BDB0B0FB6F894DEBF0FBE8A
:1017C000CDBF09942A88398848885F846E847D84D7
:1017D0008C849B84AA84B984C884DF80EE80FD80D9
:1017E0000C811B81AA81B981CE0FD11D0FB6F8944F
:0E17F000DEBF0FBECDBFED010895F894FFCF10
:1017FE0000006E000000000000008D0200000000DE
:10180E0016010801000000007B0600000000000029
:10181E00000200000000E8070000000000010000C8
:10182E005B256C755D200052656365697665722077
:10183E00696E696369616E646F2E2E2E005541527A
:10184E005420696E696369616C697A6164612028EC
:10185E005258206E6F2070696E6F20313029005201
:10186E00454345495645525F53544152540A00531D
:10187E00696E616C2064652073746172747570207A
:10188E00656E766961646F0053657269616C2D6C6B
:10189E00696E652070726F6E746F004D73672023D2
:1018AE0025643A2025730A0054616D616E686F3AA3
:1018BE002025642062797465730A005245434542BF
:1018CE0049444F5F25643A25730A0041434B206516
:1018DE006E766961646F3A2025730A004576656EEF
:1018EE00746F20726563656269646F3A2025640ABD
:0218FE000000E8
:00000001FF
