:100000000C944F000C946C000C946C000C946C00DD
:100010000C946C000C946C000C946C000C946C00B0
:100020000C946C000C946C000C946C000C946C00A0
:100030000C946C000C946C000C94C0030C946C0039
:100040000C946C000C946C000C947A020C946C0070
:100050000C946C000C946C000C946C000C946C0070
:100060000C946C000C946C0053797374656D206F64
:100070006E6C696E652E0D0A000D0A2A2A2A2A2A3C
:100080002A2A2A424F4F54494E4720434F4E544943
:100090004B492A2A2A2A2A2A2A2A2A0D0A00112406
:1000A0001FBECFEFD8E0DEBFCDBF11E0A0E0B1E0D2
:1000B000EAEBF4E102C005900D92A83BB107D9F735
:1000C00023E0A8EBB1E001C01D92A831B207E1F72F
:1000D0000E9405070C945B0A0C9400001F928F93FA
:1000E00080E391E09F938F930E9427070F900F90DA
:1000F0000F900F9081E090E00895CF93DF93EC0193
:10010000888199818532910529F1D0F4892BF1F408
:100110000E94F4006EE670E080E00E94D3020E942C
:10012000000180E491E00E94630760E072E088EBE8
:1001300091E00E94FC0185E290E09983888350C0A1
:1001400084339105A9F08334910521F01982188236
:1001500083E047C088EB91E00E942302892B09F4D9
:100160003FC08BE691E00E9463070E9417011AC00E
:1001700088EB91E00E942302892B91F10E941001EB
:10018000882381F01F928F931F928F938DE891E0C7
:100190009F938F930E9427070F900F900F900F90BF
:1001A0000F900F9081E40E940B011F9281E48F93C6
:1001B0001F928F9384EA91E09F938F930E94270769
:1001C00069E170E088EB91E00E94FC0184E390E03B
:1001D000998388830F900F900F900F900F900F903E
:1001E00081E0DF91CF91089588E98093C10008955F
:1001F0009091C00095FFFCCF8093C60008950895AC
:1002000084B18C6284B985B1886285B980E58CBD82
:1002100081E08DBD08958EBD0DB407FEFDCF08951C
:100220008FEF8EBD0DB407FEFDCF8EB508952A98D1
:1002300008952A9A08958091C3019091C401892B51
:1002400029F41092C2011092C10108950E941D0369
:10025000E091C301F091C401208131814281538139
:10026000240F351F281B390B0480F581E02D3097B2
:1002700069F06081718142815381460F571F481B8D
:10028000590B4217530780F79A01EECF820F931F45
:100290009093C2018093C101089588E091E00C948D
:1002A0008C05EF92FF920F931F93CF93DF938C01F6
:1002B000FC0180819181009799F08A359105D9F0F0
:1002C000F8011182108283E068C086819781481707
:1002D000590709F049C00480F581E02D3097A9F74E
:1002E0001092C4011092C3018AE590E0F801918355
:1002F000808381E052C0673891F16238A9F7C091DC
:10030000C301D091C401E12CF12C209769F3CE01F7
:100310000E948606892BF1F0AE0168E88E819F81EC
:100320000E943705892BA1F41F821E828C819D813A
:10033000E114F10421F0F7019583848304C09093C4
:10034000C4018093C3011D821C820E941B01D7CF70
:100350000E944D017E010C80DD81C02DD6CFE09141
:10036000C301F091C401BACFF093C401E093C3017B
:10037000A481B581109709F4B7CF16968D919C9101
:1003800017974817590739F414968D919C91159732
:1003900095838483EDCFFD01EBCFDF91CF911F914A
:1003A0000F91FF90EF900895CF93DF93EC010E949F
:1003B0004D012E813F819091C3018091C401232B77
:1003C00059F0E92FF82F309739F0EC17FD0781F03D
:1003D0000480F581E02DF7CF2091C9013091CA0149
:1003E0003F832E839C838D83D093C401C093C3012C
:1003F000DF91CF910C941B01CF93DF93EC010E940E
:100400006606CE01DF91CF910C94D401CF93DF9398
:10041000EC010E947206CE01DF91CF910C94D401C1
:10042000CF93DF93EC010E947C06CE01DF91CF9148
:100430000C94D401FC0120813181620F731F718300
:1004400060830C941B0121E030E0FC0186819781E0
:10045000892B11F020E030E0C9010895FC012081D2
:10046000318182819381820F931F0895FC018081E5
:100470009181089581E090E02091C3013091C40101
:10048000232B11F480E090E008958091C3019091B6
:10049000C401892B29F08091C1019091C201089576
:1004A00080E090E00895CF93DF93EC01E091C301E9
:1004B000F091C401E817F90769F48C819D8190934C
:1004C000C4018093C3010DC084819581C817D907E9
:1004D00021F0FC013097C1F706C08C819D81958386
:1004E00084830E941B011D821C821F821E82DF9159
:1004F000CF9108951F920F920FB60F9211242F9350
:100500003F934F935F936F937F938F939F93AF939B
:10051000BF93EF93FF938091C600E0910603F091A3
:100520000703309709F00995FF91EF91BF91AF91C3
:100530009F918F917F916F915F914F913F912F91FB
:100540000F900FBE0F901F90189581110DC0109243
:10055000C5006093C40088E98093C1004093C20045
:1005600010920703109206030895811106C080912E
:10057000C00085FFFCCF6093C6000895CF93C82FBD
:100580008A3031F46DE08091C5010E94B50202C04D
:100590008D3029F06C2F8091C5010E94B50280E05A
:1005A00090E0CF910895811104C070930703609388
:1005B000060308951F93CF93DF93182FEB018881D3
:1005C000882369F08A3021F46DE0812F0E94B50202
:1005D00069916D30A1F3812F0E94B502F0CFDF91B8
:1005E000CF911F9108959091C00095FFFCCF80930B
:1005F000C60008958093C50180E191E090931503B2
:1006000080931403089546E067E680E00E94A50207
:1006100080E00E94FA0264E376E080E00C94D3026A
:10062000F89416BC83EF87BD82E084BD94E095BD4D
:1006300015BA80936E00789408958091C7019091C7
:10064000C8012091C7013091C80182179307A9F70B
:1006500008950F931F9360910C0370910D03809187
:100660000E0390910F0300910C0310910D03209144
:100670000E0330910F03601771078207930759F734
:100680001F910F91089560930C0370930D03809355
:100690000E0390930F030895CF93DF93EC010E9414
:1006A0001D03C80FD91F0E941D038C1B9D0B97FDB6
:1006B000FACFDF91CF910895009731F0880F991FFD
:1006C000880F991F0197F1F7089520EA3FE00197FD
:1006D00020F0F9013197F1F7FACF0895CF92DF9228
:1006E000EF92FF92EFB7F8942091C7013091C801C3
:1006F000280F391F3093C8012093C7012091C601EC
:10070000820F911D409108035091090360910A03E3
:1007100070910B039C012F3F3105C1F0B8F03A9561
:10072000C0900C03D0900D03E0900E03F0900F03E7
:10073000FFEFCF1ADF0AEF0AFF0AC0920C03D09234
:100740000D03E0920E03F0920F03E5CF292F33271C
:10075000420F531F611D711D4093080350930903FD
:1007600060930A0370930B03322F2227821B930B93
:100770008093C601EFBFFF90EF90DF90CF90089578
:100780001F920F920FB60F9211242F933F934F9306
:100790005F936F937F938F939F93AF93BF93EF93E9
:1007A000FF938091C7019091C80101969093C80171
:1007B0008093C7018091C6018F5F8093C6010E941C
:1007C0003A02892B11F00E944D01FF91EF91BF91E8
:1007D000AF919F918F917F916F915F914F913F91D9
:1007E0002F910F900FBE0F901F9018951F93CF93CE
:1007F000DF93DC011296ED91FC9113973097E1F0B5
:10080000162FEC019093CA018093C90182E08E8378
:10081000CD0104960995082E000C990B02970297BA
:1008200010F0133839F4BE01CE01DF91CF911F9142
:100830000C94260481E08E83DF91CF911F9108955F
:10084000FC01268120FD0C94F6030895CF92DF92DF
:10085000EF92FF920F931F93CF93DF93E090C90124
:10086000F090CA010091CB011091CC01F801E8177A
:10087000F90739F0309709F44BC00190F081E02D71
:10088000F6CF009709F444C06B01EC018E818823F8
:1008900009F11E820115110561F00C171D0729F0E1
:1008A000AE0167E8C8010E942004F80100811181AF
:1008B000F1CFEA81FB81309769F0CC15DD0551F06D
:1008C000D093CA01C093C90140E050E063E8CE0173
:1008D00004960995E091CB01F091CC01CE17DF078A
:1008E00041F4888199819093CC018093CB010CC015
:1008F000FC01309749F080819181C817D907C1F771
:100900008881998191838083F092CA01E092C90124
:10091000DF91CF911F910F91FF90EF90DF90CF90DB
:1009200008951F93CF93DF931092D201C091CB0112
:10093000D091CC0111E0209779F08F81882341F08C
:100940001E831F8240E050E062E8CE010E94F60361
:100950000990D881C02DEFCFDF91CF911F910895DD
:100960008091FD0191E0980F9093FD0108956091B1
:10097000C9017091CA010C9426048AE88093FD0194
:100980001092FB011092FC01109210031092CC0106
:100990001092CB011092CA011092C9010895809162
:1009A000D20181110E9491049091FC01992309F4D4
:1009B0004EC0E091FB012E2F30E085E0E89FF00172
:1009C0001124ED52FE4F60816093D101418152812B
:1009D0005093D0014093CF010380F481E02D2F5F2D
:1009E0003F4F277033272093FB0191509093FC01D8
:1009F000309731F58091CB019091CC019093CE014D
:100A00008093CD018091CD019091CE01892BF9F099
:100A10008091D20181110E9491044091CF015091A7
:100A2000D0016091D1018091CD019091CE010E94C1
:100A30002004E091CD01F091CE0180819181DECF43
:100A4000613811F481E08683CF010E9420048091F7
:100A5000D2012091FC0190E0820F911D08958091B8
:100A6000D2012091FC0190E0820F911D08959C011C
:100A70009091FC019830D1F0E091FB01E90FE77013
:100A800085E0E89FF0011124ED52FE4F6083528310
:100A900041833483238381E0890F8093FC0190910B
:100AA0001003981730F48093100303C081E090E0A6
:100AB000089580E090E00895CF93DF93C091C9013D
:100AC000D091CA010E942004D093CA01C093C901E9
:100AD000DF91CF910895AB013091CB012091CC01F2
:100AE000E32FF22FE817F907B1F0309721F00190CA
:100AF000F081E02DF7CF009771F0FC013083218366
:100B00009093CC018093CB0121E02683158214823F
:100B100061E80C945C050895009749F0FC0126817A
:100B20002150223020F421E027832093D201089520
:100B300021E030E0FC018681811102C020E030E03C
:100B4000C9010895CF93DF93CEE1D1E089919991C6
:100B5000009729F060E070E00E946B05F7CFDF910D
:100B6000CF910895CF93DF93EC01899199910097EC
:100B700029F060E070E00E946B05F7CFDF91CF9124
:100B80000895CF93DF93EC0189919991009719F023
:100B90000E94B704F9CFDF91CF910895CF93DF93EF
:100BA000EC01888199818836910579F08A37910521
:100BB00009F453C0892B09F04CC00E94B004809303
:100BC00011031092800210927F0281E093E00E9454
:100BD000D8068F3F2FEF920719F488E690E036C0D1
:100BE00020917F02309180028A30910579F02F3771
:100BF00031055CF7A9014F5F5F4F5093800240932E
:100C00007F02F901E150FE4F8083DFCFC9010196D9
:100C10009093800280937F02F901E150FE4F108291
:100C20004FEF51E06091110380E090E00E943705A2
:100C300040E050E065E88091C9019091CA010E94AE
:100C40003705892B09F0BDCF8AE790E09983888327
:100C500007C01982188283E004C0653809F4B1CF57
:100C600081E0DF91CF9108958D3001F1682F80915F
:100C7000FE0181110AC081E093E00E94B806892B31
:100C800071F481E08093FE010AC06A3041F481E092
:100C900093E00E94B806892B11F01092FE0184E2C5
:100CA00091E00E948C0581E090E0089580E090E062
:100CB000089540E861E872E081E093E00E94B006A8
:100CC00060E070E084E291E00C946B05CF93DF93D9
:100CD000EC017B836A830E941D0399838883DF91E3
:100CE000CF910895FC012081318182819381820F0F
:100CF000931F918380830895CF93DF93EC010E942B
:100D00001D0399838883DF91CF910895CF93DF935B
:100D1000EC010E941D0328813981821B930B9C01E9
:100D20002F5F3F4F81E090E04A815B81421753077C
:100D300010F080E090E0DF91CF910895CF93DF93A2
:100D4000FC01C081D18182819381C80FD91F0E948B
:100D50001D039E01281B390BC901DF91CF91089516
:100D6000FC01718360834150428313821482089591
:100D7000FC018381228130E090E04481DC01A41BEE
:100D8000B109AD01422353232417350771F02081A7
:100D90003181D901A80FB91F6C9383818F5F928134
:100DA0008923838381E090E0089580E090E00895B6
:100DB000FC0134812281838190E0432F50E0841B29
:100DC000950B622F70E086239723892B59F0808141
:100DD0009181DC01A40FB51F8C913F5F23232483F5
:100DE00090E008958FEF9FEF0895FC01828190E0DD
:100DF00001960895FC01238130E08481281B31098C
:100E0000828190E08223932308950E9403030E942D
:100E100010030E94BD040E94A2052D980E9459064D
:100E20008CE291E00E94B20589E790E09F938F9356
:100E30000E943D0788E690E09F938F930E943D07B4
:100E40000F900F900F900F900E94CF04FDCFA0E065
:100E5000B0E0EDE2F7E00C94340AAE014B5F5F4F77
:100E6000FA0161917191AF01809114039091150382
:100E70000E949307E2E00C94500AA0E0B0E0E3E4A3
:100E8000F7E00C94320AAE01495F5F4FDA016D91D1
:100E90007D91AD0102E113E0F80182819381DC01D3
:100EA00013962C911397286013962C930E94930706
:100EB000D8011296ED91FC9113972381277F23830C
:100EC000E4E00C944E0A0F931F93CF93DF93E091CD
:100ED0001403F0911503238121FF1BC08C01D0E086
:100EE000C0E0F80181918F016091140370911503A6
:100EF000DB011896ED91FC911997882331F0099543
:100F0000892B79F3DFEFCFEFECCF8AE00995892BBE
:100F100019F08FEF9FEF02C08D2F9C2FDF91CF91A3
:100F20001F910F910895ABE0B0E0E9E9F7E00C9470
:100F3000240A6C017B018A01FC01178216828381DD
:100F400081FFCCC1CE0101963C01F6019381F701EE
:100F500093FD859193FF81917F01882309F4BAC1A4
:100F6000853239F493FD859193FF81917F0185321C
:100F700029F4B60190E00E948A09E7CF912C212C38
:100F8000312CFFE1F315D8F08B3279F038F4803250
:100F900079F08332A1F4232D20611DC08D3261F0E0
:100FA000803369F4232D216016C0832D8260382E92
:100FB000E32DE4603E2E2AC0F32DF8601DC037FCFF
:100FC0002DC020ED280F2A3040F08E32B9F436FCC7
:100FD00081C1232D2064322E19C036FE06C08AE05E
:100FE000989E200D1124922E11C0EAE02E9E200D15
:100FF0001124222EF32DF0623F2E08C08C3621F4EE
:10100000832D8068382E02C0883641F4F70193FDA5
:10101000859193FF81917F018111B3CF982F9F7D9F
:101020009554933028F40C5F1F4F9FE399830DC0B4
:10103000833631F0833771F0833509F059C021C010
:10104000F801808189830E5F1F4F88248394912C3F
:10105000530113C02801F2E04F0E511CF801A0808B
:10106000B18036FE03C0692D70E002C06FEF7FEFE4
:10107000C5010E947F094C018201F32DFF773F2EAD
:1010800016C0280122E0420E511CF801A080B18058
:1010900036FE03C0692D70E002C06FEF7FEFC5011F
:1010A0000E9474094C01F32DF0683F2E820133FC3D
:1010B0001BC0822D90E088169906B0F4B60180E23C
:1010C00090E00E948A092A94F4CFF50137FC8591BB
:1010D00037FE81915F01B60190E00E948A092110DC
:1010E0002A9421E0821A91088114910471F7E8C0D2
:1010F000843611F0893641F5F80137FE07C060816A
:101100007181828193810C5F1F4F08C06081718162
:10111000072E000C880B990B0E5F1F4FF32DFF76E7
:101120003F2E97FF09C090958095709561957F4FF0
:101130008F4F9F4FF0683F2E2AE030E0A3010E94BE
:10114000C609882E861845C0853731F4232D2F7E99
:10115000B22E2AE030E025C0932D997FB92E8F362C
:10116000C1F018F4883579F0B5C0803719F08837A8
:1011700021F0B0C0E92FE061BE2EB4FE0DC0FB2D02
:10118000F460BF2E09C034FE0AC0292F2660B22E9B
:1011900006C028E030E005C020E130E002C020E1D8
:1011A00032E0F801B7FE07C06081718182819381CE
:1011B0000C5F1F4F06C06081718180E090E00E5F80
:1011C0001F4FA3010E94C609882E8618FB2DFF77AA
:1011D0003F2E36FE0DC0232D2E7FA22E891458F4EB
:1011E00034FE0BC032FC09C0832D8E7EA82E05C0B4
:1011F000B82CA32C03C0B82C01C0B92CA4FE0FC07E
:10120000FE01E80DF11D8081803321F49A2D997E35
:10121000A92E09C0A2FE06C0B394B39404C08A2DBF
:10122000867809F0B394A3FC11C0A0FE06C0B214E6
:1012300088F4280C922C9B180EC0B21460F4B601EE
:1012400080E290E00E948A09B394F7CFB21418F4B8
:101250002B1802C0982C212CA4FE10C0B60180E3EC
:1012600090E00E948A09A2FE17C0A1FC03C088E793
:1012700090E002C088E590E0B6010CC08A2D867827
:1012800059F0A1FE02C08BE201C080E2A7FC8DE212
:10129000B60190E00E948A09891438F4B60180E30F
:1012A00090E00E948A099A94F7CF8A94F301E80D9E
:1012B000F11D8081B60190E00E948A098110F5CF6E
:1012C000222009F442CEB60180E290E00E948A0911
:1012D0002A94F6CFF6018681978102C08FEF9FEFA7
:1012E0002B96E2E10C94400AFC010590615070409D
:1012F0000110D8F7809590958E0F9F1F0895FC01DF
:101300006150704001900110D8F7809590958E0F34
:101310009F1F08950F931F93CF93DF93FB012381AA
:1013200021FD03C08FEF9FEF2CC022FF16C0468126
:101330005781248135814217530744F4A081B1813C
:101340009D012F5F3F4F318320838C93268137810E
:101350002F5F3F4F3783268314C08B01EC01FB01C5
:101360000084F185E02D0995892BE1F6D8011696C8
:101370008D919C911797019617969C938E93169733
:10138000CE01DF91CF911F910F910895FA01AA2705
:10139000283051F1203181F1E8946F936E7F6E5FB8
:1013A0007F4F8F4F9F4FAF4FB1E03ED0B4E03CD066
:1013B000670F781F891F9A1FA11D680F791F8A1F49
:1013C000911DA11D6A0F711D811D911DA11D20D0B0
:1013D00009F468943F912AE0269F11243019305D6A
:1013E0003193DEF6CF010895462F4770405D41935B
:1013F000B3E00FD0C9F7F6CF462F4F70405D4A33A8
:1014000018F0495D31FD4052419302D0A9F7EACF6F
:10141000B4E0A6959795879577956795BA95C9F79E
:1014200000976105710508959B01AC010A2E069491
:101430005795479537952795BA95C9F7620F731F4A
:10144000841F951FA01D08952F923F924F925F9287
:101450006F927F928F929F92AF92BF92CF92DF92C4
:10146000EF92FF920F931F93CF93DF93CDB7DEB729
:10147000CA1BDB0B0FB6F894DEBF0FBECDBF0994BD
:101480002A88398848885F846E847D848C849B8414
:10149000AA84B984C884DF80EE80FD800C811B8122
:1014A000AA81B981CE0FD11D0FB6F894DEBF0FBE51
:0A14B000CDBFED010895F894FFCFC1
:1014BA0000007D0000000000000051010000000053
:1014CA000000000200000000BE0200000000080147
:1014DA00240100000000CE05000000000001000009
:1014EA005350492052583A203078253032580A0051
:1014FA0053504920696E7465726661636520696E2E
:10150A00697469616C697A656420666F72204154F6
:10151A0020636F6D6D616E64732E0053656E64692E
:10152A006E672041542B56455220636F6D6D616E74
:10153A006420766961205350492E2E2E005265632D
:10154A0065697665643A202563202830782530322B
:10155A0058290A0053656E743A202563202830788A
:08156A0025303258290A000067
:00000001FF
