:100000000C944F000C946C000C946C000C947501D3
:100010000C946C000C946C000C946C000C946C00B0
:100020000C946C000C946C000C946C000C94A50166
:100030000C946C000C946C000C94E5060C946C0011
:100040000C946C000C946C000C9491070C946C0054
:100050000C946C000C946C000C946C000C946C0070
:100060000C946C000C946C0053797374656D206F64
:100070006E6C696E652E0D0A000D0A2A2A2A2A2A3C
:100080002A2A2A424F4F54494E4720434F4E544943
:100090004B492A2A2A2A2A2A2A2A2A0D0A00112406
:1000A0001FBECFEFD8E0DEBFCDBF12E0A0E0B1E0D1
:1000B000E4EEF6E102C005900D92AC30B107D9F73D
:1000C00023E0ACE0B2E001C01D92A43FB207E1F72B
:1000D0000E941A080C94700B0C9400000F931F934D
:1000E000CF93DF938C01FC0180819181009739F0DF
:1000F0008097B9F1F8011182108283E08BC01F92C2
:100100008AE08F931F928BE08F9380E391E09F931F
:100110008F930E943C080E940F010E94BB028091B5
:100120008400909185009F938F9385E691E09F9343
:100130008F930E943C0860E073E08EE492E00E949E
:1001400055052DB73EB7265F3F4F0FB6F8943EBF1B
:100150000FBE2DBF80E290E0F8019183808381E0A3
:1001600059C06838B9F78EE492E00E947C05892B6B
:1001700089F380914C0290914D02019690934D022B
:1001800080934C029F938F9388E991E09F938F9384
:100190001F9280E48F93CCE0D2E0DF93CF930E9454
:1001A000780880918400909185009F938F93DF93CE
:1001B000CF938DE991E09F938F930E943C08CE01ED
:1001C0000E944A01EDB7FEB73E960FB6F894FEBF07
:1001D0000FBEEDBF892B49F480918400909185007A
:1001E0009F938F9384EC91E008C08091840090915C
:1001F00085009F938F9385EE91E09F938F930E944C
:100200003C080F900F900F900F908EE492E00E94A8
:100210005F05A0CFDF91CF911F910F910895239893
:10022000229A2A9AE8E6F0E0808181608083EBE6FA
:10023000F0E0808188608083E1E8F0E08081886080
:100240008083808181608083EFE6F0E080818D7F14
:1002500080830895F8942A98EFE9F1E03197F1F757
:1002600000C0000098E080FF02C02A9A01C02A98CE
:10027000EFE9F1E03197F1F700C000008695915069
:1002800091F72A9A8FE991E00197F1F700C00000F9
:1002900078940895CF93DF93009751F0EC01899102
:1002A000882319F00E942A01FACF80E090E002C072
:1002B0008FEF9FEFDF91CF91089590915802809139
:1002C0005702981781F0E0915702F0E0E75AFD4F8E
:1002D00080812091570230E02F5F3F4F2F733327EB
:1002E00020935702089580E008951F920F920FB651
:1002F0000F9211248F939F931B9920C080919B0292
:1003000090919C02892BD1F481E090E090939C0223
:1003100080939B02809168008E7F8093680083ECBD
:1003200099E0909389008093880010928500109244
:10033000840080916F00826080936F009F918F9105
:100340000F900FBE0F901F9018951F920F920FB62F
:100350000F9211242F933F934F935F936F937F934B
:100360008F939F93AF93BF93EF93FF9382E896E0B1
:10037000909389008093880080919B0290919C02C9
:100380008230910569F08330910569F1019709F098
:1003900048C010929A021092990282E090E01EC02A
:1003A000809199028830A0F41B9B0DC03091990276
:1003B00020919A0281E090E001C0880F3A95EAF717
:1003C000822B80939A02809199028F5F8093990289
:1003D00080919902883098F183E090E090939C029C
:1003E00080939B022CC01B9B1CC08091580290E004
:1003F00001968F73992720915702281779F0E09181
:100400005802F0E090919A02E75AFD4F9083809352
:10041000580280919A020E94960203C081E0809364
:10042000560210929C0210929B0280916F008D7F69
:1004300080936F0080916800816080936800FF91D5
:10044000EF91BF91AF919F918F917F916F915F914C
:100450004F913F912F910F900FBE0F901F901895C5
:10046000CF93DF93EC01888199818836910579F0EB
:100470008A37910509F453C0892B09F04CC00E94BA
:1004800082038093E20310921F0310921E0380EAFE
:1004900093E00E94FB058F3F2FEF920719F488E647
:1004A00090E036C020911E0330911F038A309105E1
:1004B00079F02F3731055CF7A9014F5F5F4F5093FB
:1004C0001F0340931E03F901E256FD4F8083DFCFE7
:1004D000C901019690931F0380931E03F901E25610
:1004E000FD4F10824EE952E06091E20380E090E01F
:1004F0000E94090440E050E065E88091A5039091D6
:10050000A6030E940904892B09F0BDCF8AE790E079
:100510009983888307C01982188283E004C06538F4
:1005200009F4B1CF81E0DF91CF9108958D3001F1D1
:10053000682F80919D0281110AC080EA93E00E9499
:10054000DB05892B71F481E080939D020AC06A303B
:1005500041F480EA93E00E94DB05892B11F01092B0
:100560009D0288E091E00E945E0481E090E00895A1
:1005700080E090E0089540E860E273E080EA93E074
:100580000E94D30560E070E088E091E00C943D04A7
:100590001F93CF93DF93DC011296ED91FC9113979B
:1005A0003097E1F0162FEC019093A6038093A503FA
:1005B00082E08E83CD0104960995082E000C990BDC
:1005C0000297029710F0133839F4BE01CE01DF9183
:1005D000CF911F910C94F80281E08E83DF91CF912F
:1005E0001F910895FC01268120FD0C94C8020895F6
:1005F000CF92DF92EF92FF920F931F93CF93DF93EF
:10060000E090A503F090A6030091A7031091A80322
:10061000F801E817F90739F0309709F44BC0019059
:10062000F081E02DF6CF009709F444C06B01EC0196
:100630008E81882309F11E820115110561F00C17C6
:100640001D0729F0AE0167E8C8010E94F202F80117
:1006500000811181F1CFEA81FB81309769F0CC15DF
:10066000DD0551F0D093A603C093A50340E050E010
:1006700063E8CE0104960995E091A703F091A803E1
:10068000CE17DF0741F4888199819093A803809366
:10069000A7030CC0FC01309749F080819181C817F5
:1006A000D907C1F78881998191838083F092A6034D
:1006B000E092A503DF91CF911F910F91FF90EF90F2
:1006C000DF90CF9008951F93CF93DF931092AE03E6
:1006D000C091A703D091A80311E0209779F08F81F2
:1006E000882341F01E831F8240E050E062E8CE0183
:1006F0000E94C8020990D881C02DEFCFDF91CF9121
:100700001F9108958091D90391E0980F9093D90398
:1007100008956091A5037091A6030C94F8028AE8ED
:100720008093D9031092D7031092D8031092E30359
:100730001092A8031092A7031092A6031092A5038B
:1007400008958091AE0381110E9463039091D803B4
:10075000992309F44EC0E091D7032E2F30E085E0B5
:10076000E89FF0011124E155FC4F60816093AD03D7
:10077000418152815093AC034093AB030380F481D9
:10078000E02D2F5F3F4F277033272093D7039150E1
:100790009093D803309731F58091A7039091A803E7
:1007A0009093AA038093A9038091A9039091AA032F
:1007B000892BF9F08091AE0381110E94630340916F
:1007C000AB035091AC036091AD038091A90390916C
:1007D000AA030E94F202E091A903F091AA0380818A
:1007E0009181DECF613811F481E08683CF010E94D0
:1007F000F2028091AE032091D80390E0820F911D08
:1008000008958091AE032091D80390E0820F911D4E
:1008100008959C019091D8039830D1F0E091D703CE
:10082000E90FE77085E0E89FF0011124E155FC4FE6
:100830006083528341833483238381E0890F8093D3
:10084000D8039091E303981730F48093E30303C037
:1008500081E090E0089580E090E00895CF93DF93E9
:10086000C091A503D091A6030E94F202D093A603E3
:10087000C093A503DF91CF910895AB013091A703F9
:100880002091A803E32FF22FE817F907B1F0309772
:1008900021F00190F081E02DF7CF009771F0FC017D
:1008A000308321839093A8038093A70321E02683BC
:1008B0001582148261E80C942E040895009749F083
:1008C000FC0126812150223020F421E0278320934F
:1008D000AE03089521E030E0FC018681811102C061
:1008E00020E030E0C90108958091DC039091DD03A0
:1008F000892B29F41092DB031092DA0308950E94E9
:100900004206E091DC03F091DD03208131814281D8
:100910005381240F351F281B390B0480F581E02DEE
:10092000309769F06081718142815381460F571F72
:10093000481B590B4217530780F79A01EECF820FDD
:10094000931F9093DB038093DA03089580E191E095
:100950000C945E04EF92FF920F931F93CF93DF935B
:100960008C01FC0180819181009799F08A35910575
:10097000D9F0F8011182108283E068C086819781E6
:100980004817590709F049C00480F581E02D3097D8
:10099000A9F71092DD031092DC038AE590E0F801DC
:1009A0009183808381E052C0673891F16238A9F762
:1009B000C091DC03D091DD03E12CF12C209769F389
:1009C000CE010E946707892BF1F0AE0168E88E81A5
:1009D0009F810E940904892BA1F41F821E828C81B1
:1009E0009D81E114F10421F0F7019583848304C013
:1009F0009093DD038093DC031D821C820E947404AB
:100A0000D7CF0E94A6047E010C80DD81C02DD6CFF9
:100A1000E091DC03F091DD03BACFF093DD03E093C6
:100A2000DC03A481B581109709F4B7CF16968D9198
:100A30009C9117974817590739F414968D919C91FA
:100A4000159795838483EDCFFD01EBCFDF91CF9197
:100A50001F910F91FF90EF900895CF93DF93EC01DA
:100A60000E94A6042E813F819091DC038091DD03DA
:100A7000232B59F0E92FF82F309739F0EC17FD07A9
:100A800081F00480F581E02DF7CF2091A50330910E
:100A9000A6033F832E839C838D83D093DD03C09375
:100AA000DC03DF91CF910C947404CF93DF93EC01BE
:100AB0000E944707CE01DF91CF910C942D05CF9373
:100AC000DF93EC010E945307CE01DF91CF910C948C
:100AD0002D05CF93DF93EC010E945D07CE01DF91DE
:100AE000CF910C942D05FC0120813181620F731F81
:100AF000718360830C94740421E030E0FC018681F2
:100B00009781892B11F020E030E0C9010895FC01A4
:100B10002081318182819381820F931F0895FC018E
:100B200080819181089581E090E02091DC033091F3
:100B3000DD03232B11F480E090E008958091DC0325
:100B40009091DD03892B29F08091DA039091DB03EA
:100B5000089580E090E00895CF93DF93EC01E09159
:100B6000DC03F091DD03E817F90769F48C819D81BE
:100B70009093DD038093DC030DC084819581C817B9
:100B8000D90721F0FC013097C1F706C08C819D8107
:100B9000958384830E9474041D821C821F821E829E
:100BA000DF91CF910895FC017183608341504283AE
:100BB000138214820895FC018381228130E090E049
:100BC0004481DC01A41BB109AD0142235323241746
:100BD000350771F020813181D901A80FB91F6C93BD
:100BE00083818F5F92818923838381E090E00895E0
:100BF00080E090E00895FC0134812281838190E0BF
:100C0000432F50E0841B950B622F70E086239723BF
:100C1000892B59F080819181DC01A40FB51F8C9143
:100C20003F5F2323248390E008958FEF9FEF089583
:100C3000FC01828190E001960895FC01238130E05F
:100C40008481281B3109828190E0822393230895B7
:100C500046E067E680E00E94BC0780E00E94110841
:100C600066E972E080E00C94EA07F89416BC83EF22
:100C700087BD82E084BD94E095BD15BA80936E0077
:100C8000789408958091DF039091E0032091DF0331
:100C90003091E00382179307A9F708950F931F93EC
:100CA0006091E8037091E9038091EA039091EB036E
:100CB0000091E8031091E9032091EA033091EB03DE
:100CC000601771078207930759F71F910F910895D5
:100CD0006093E8037093E9038093EA039093EB0336
:100CE0000895CF93DF93EC010E944206C80FD91FED
:100CF0000E9442068C1B9D0B97FDFACFDF91CF918E
:100D00000895009731F0880F991F880F991F019758
:100D1000F1F7089520EA3FE0019720F0F9013197BB
:100D2000F1F7FACF0895CF92DF92EF92FF92EFB7EB
:100D3000F8942091DF033091E003280F391F30939E
:100D4000E0032093DF032091DE03820F911D409189
:100D5000E4035091E5036091E6037091E7039C0181
:100D60002F3F3105C1F0B8F03A95C090E803D0901C
:100D7000E903E090EA03F090EB03FFEFCF1ADF0AFC
:100D8000EF0AFF0AC092E803D092E903E092EA0377
:100D9000F092EB03E5CF292F3327420F531F611D3C
:100DA000711D4093E4035093E5036093E603709351
:100DB000E703322F2227821B930B8093DE03EFBFC2
:100DC000FF90EF90DF90CF9008951F920F920FB693
:100DD0000F9211242F933F934F935F936F937F93C1
:100DE0008F939F93AF93BF93EF93FF938091DF0314
:100DF0009091E00301969093E0038093DF0380914C
:100E0000DE038F5F8093DE030E949305892B11F030
:100E10000E94A604FF91EF91BF91AF919F918F9196
:100E20007F916F915F914F913F912F910F900FBEE6
:100E30000F901F901895CF93DF93C8E1D1E089916F
:100E40009991009729F060E070E00E943D04F7CF8F
:100E5000DF91CF910895CF93DF93EC018991999120
:100E6000009729F060E070E00E943D04F7CFDF9129
:100E7000CF910895CF93DF93EC01899199910097D9
:100E800019F00E948903F9CFDF91CF910895CF9394
:100E9000DF93EC017B836A830E94420699838883F7
:100EA000DF91CF910895FC0120813181828193816E
:100EB000820F931F918380830895CF93DF93EC017A
:100EC0000E94420699838883DF91CF910895CF9342
:100ED000DF93EC010E94420628813981821B930B2B
:100EE0009C012F5F3F4F81E090E04A815B81421778
:100EF000530710F080E090E0DF91CF910895CF93F9
:100F0000DF93FC01C081D18182819381C80FD91FF9
:100F10000E9442069E01281B390BC901DF91CF9127
:100F200008951F920F920FB60F9211242F933F93A3
:100F30004F935F936F937F938F939F93AF93BF93E1
:100F4000EF93FF938091C600E091EC03F091ED03E5
:100F5000309709F00995FF91EF91BF91AF919F9163
:100F60008F917F916F915F914F913F912F910F9052
:100F70000FBE0F901F90189581110DC01092C500E3
:100F80006093C40088E98093C1004093C20010922E
:100F9000ED031092EC030895811106C08091C0000A
:100FA00085FFFCCF6093C6000895CF93C82F8A3089
:100FB00031F46DE08091E1030E94CC0702C08D30D6
:100FC00029F06C2F8091E1030E94CC0780E090E033
:100FD000CF910895811104C07093ED036093EC03E9
:100FE00008951F93CF93DF93182FEB0188818823F7
:100FF00069F08A3021F46DE0812F0E94CC0769915D
:101000006D30A1F3812F0E94CC07F0CFDF91CF91FB
:101010001F9108959091C00095FFFCCF8093C6006A
:1010200008958093E1038EE191E09093F103809322
:10103000F00308950E9428060E9435060E948F033F
:101040000E941B072D980E94BB028CE291E00E9437
:101050002B0789E790E09F938F930E94520888E6C0
:1010600090E09F938F930E9452080F900F900F90E3
:101070000F900E94A103FDCFA0E0B0E0E2E4F8E011
:101080000C94490BAE014B5F5F4FFA016191719176
:10109000AF018091F0039091F1030E94A808E2E073
:1010A0000C94650BA0E0B0E0E8E5F8E00C94470B89
:1010B000AE01495F5F4FDA016D917D91AD010EEE9A
:1010C00013E0F80182819381DC0113962C91139730
:1010D000286013962C930E94A808D8011296ED91CF
:1010E000FC9113972381277F2383E4E00C94630B07
:1010F000AEE0B0E0EEE7F8E00C94470B0D891E89F6
:101100008F89988D26E02C831A83098397FF02C06C
:1011100080E090E801979E838D83AE01455E5F4F2E
:10112000698D7A8DCE0101960E94A8084D815E815D
:1011300057FD0AC02F813885421753070CF49A01D6
:10114000F801E20FF31F10822E96E4E00C94630B7B
:10115000ABE0B0E0EEEAF8E00C94390B6C017B01F7
:101160008A01FC0117821682838181FFCCC1CE01E6
:1011700001963C01F6019381F70193FD859193FF60
:1011800081917F01882309F4BAC1853239F493FD36
:10119000859193FF81917F01853229F4B60190E01A
:1011A0000E949F0AE7CF912C212C312CFFE1F315EF
:1011B000D8F08B3279F038F4803279F08332A1F4B0
:1011C000232D20611DC08D3261F0803369F4232D01
:1011D000216016C0832D8260382EE32DE4603E2E00
:1011E0002AC0F32DF8601DC037FC2DC020ED280F5C
:1011F0002A3040F08E32B9F436FC81C1232D2064B0
:10120000322E19C036FE06C08AE0989E200D1124A9
:10121000922E11C0EAE02E9E200D1124222EF32DD5
:10122000F0623F2E08C08C3621F4832D8068382E62
:1012300002C0883641F4F70193FD859193FF8191B7
:101240007F018111B3CF982F9F7D9554933028F45F
:101250000C5F1F4F9FE399830DC0833631F08337B6
:1012600071F0833509F059C021C0F801808189836C
:101270000E5F1F4F88248394912C530113C02801C3
:10128000F2E04F0E511CF801A080B18036FE03C081
:10129000692D70E002C06FEF7FEFC5010E94940AD4
:1012A0004C018201F32DFF773F2E16C0280122E06A
:1012B000420E511CF801A080B18036FE03C0692D9A
:1012C00070E002C06FEF7FEFC5010E94890A4C01F8
:1012D000F32DF0683F2E820133FC1BC0822D90E07D
:1012E00088169906B0F4B60180E290E00E949F0A49
:1012F0002A94F4CFF50137FC859137FE81915F0187
:10130000B60190E00E949F0A21102A9421E0821ADF
:1013100091088114910471F7E8C0843611F0893680
:1013200041F5F80137FE07C06081718182819381A8
:101330000C5F1F4F08C060817181072E000C880B65
:10134000990B0E5F1F4FF32DFF763F2E97FF09C0BD
:1013500090958095709561957F4F8F4F9F4FF06866
:101360003F2E2AE030E0A3010E94DB0A882E861877
:1013700045C0853731F4232D2F7EB22E2AE030E090
:1013800025C0932D997FB92E8F36C1F018F488357A
:1013900079F0B5C0803719F0883721F0B0C0E92F57
:1013A000E061BE2EB4FE0DC0FB2DF460BF2E09C05F
:1013B00034FE0AC0292F2660B22E06C028E030E095
:1013C00005C020E130E002C020E132E0F801B7FEC4
:1013D00007C060817181828193810C5F1F4F06C0BD
:1013E0006081718180E090E00E5F1F4FA3010E9439
:1013F000DB0A882E8618FB2DFF773F2E36FE0DC0A8
:10140000232D2E7FA22E891458F434FE0BC032FCFB
:1014100009C0832D8E7EA82E05C0B82CA32C03C036
:10142000B82C01C0B92CA4FE0FC0FE01E80DF11DBF
:101430008081803321F49A2D997EA92E09C0A2FEC5
:1014400006C0B394B39404C08A2D867809F0B3948F
:10145000A3FC11C0A0FE06C0B21488F4280C922C84
:101460009B180EC0B21460F4B60180E290E00E94B6
:101470009F0AB394F7CFB21418F42B1802C0982C1B
:10148000212CA4FE10C0B60180E390E00E949F0AC8
:10149000A2FE17C0A1FC03C088E790E002C088E567
:1014A00090E0B6010CC08A2D867859F0A1FE02C0EA
:1014B0008BE201C080E2A7FC8DE2B60190E00E94C1
:1014C0009F0A891438F4B60180E390E00E949F0AD5
:1014D0009A94F7CF8A94F301E80DF11D8081B6014B
:1014E00090E00E949F0A8110F5CF222009F442CE9D
:1014F000B60180E290E00E949F0A2A94F6CFF6019E
:101500008681978102C08FEF9FEF2B96E2E10C94CA
:10151000550BFC010590615070400110D8F7809583
:1015200090958E0F9F1F0895FC01615070400190AF
:101530000110D8F7809590958E0F9F1F08950F93F7
:101540001F93CF93DF93FB01238121FD03C08FEF16
:101550009FEF2CC022FF16C0468157812481358120
:101560004217530744F4A081B1819D012F5F3F4F83
:10157000318320838C93268137812F5F3F4F3783C0
:10158000268314C08B01EC01FB010084F185E02D62
:101590000995892BE1F6D80116968D919C911797A4
:1015A000019617969C938E931697CE01DF91CF915B
:1015B0001F910F910895FA01AA27283051F1203187
:1015C00081F1E8946F936E7F6E5F7F4F8F4F9F4FD7
:1015D000AF4FB1E03ED0B4E03CD0670F781F891F19
:1015E0009A1FA11D680F791F8A1F911DA11D6A0FE7
:1015F000711D811D911DA11D20D009F468943F919A
:101600002AE0269F11243019305D3193DEF6CF0198
:101610000895462F4770405D4193B3E00FD0C9F75E
:10162000F6CF462F4F70405D4A3318F0495D31FDCB
:101630004052419302D0A9F7EACFB4E0A69597951E
:10164000879577956795BA95C9F7009761057105F4
:1016500008959B01AC010A2E06945795479537953E
:101660002795BA95C9F7620F731F841F951FA01D98
:1016700008952F923F924F925F926F927F928F9236
:101680009F92AF92BF92CF92DF92EF92FF920F9311
:101690001F93CF93DF93CDB7DEB7CA1BDB0B0FB61B
:1016A000F894DEBF0FBECDBF09942A8839884888D8
:1016B0005F846E847D848C849B84AA84B984C8846E
:1016C000DF80EE80FD800C811B81AA81B981CE0F65
:1016D000D11D0FB6F894DEBF0FBECDBFED0108954A
:0416E000F894FFCFAC
:1016E40000006E0000000000000030020000000056
:1016F4000000AA040000000010010801000000001E
:10170400000200000000D5070000000000010000F6
:101714004442475F53454E4445527C20496E6963B9
:1017240069616E646F2E2E2E202854583A207069F9
:101734006E6F2025642C2052583A2070696E6F20F9
:101744002564290A004442475F53454E4445527C70
:101754002055415254202B2053657269616C2D6CC5
:10176400696E652070726F6E746F73207C2054698B
:101774006D653A2025750A00535F2564004442478D
:101784005F53454E4445527C20456E7669616E64D4
:101794006F3A2027257327207C2054696D653A20F1
:1017A40025750A004442475F53454E4445527C2008
:1017B400456E76696F204F4B207C2054696D653AE5
:1017C4002025750A004442475F53454E4445527CE8
:1017D4002046616C6861206E6F20656E76696F20AB
:0C17E4007C2054696D653A2025750A00D0
:00000001FF
