:100000000C944F000C946C000C946C000C946C00DD
:100010000C946C000C946C000C946C000C946C00B0
:100020000C946C000C946C000C946C000C946C00A0
:100030000C946C000C946C000C9447030C946C00B2
:100040000C946C000C946C000C948C060C946C005A
:100050000C946C000C946C000C946C000C946C0070
:100060000C946C000C946C0053797374656D206F64
:100070006E6C696E652E0D0A000D0A2A2A2A2A2A3C
:100080002A2A2A424F4F54494E4720434F4E544943
:100090004B492A2A2A2A2A2A2A2A2A0D0A00112406
:1000A0001FBECFEFD8E0DEBFCDBF12E0A0E0B1E0D1
:1000B000EAEDF4E102C005900D92A230B107D9F744
:1000C00023E0A2E0B2E001C01D92A136B207E1F741
:1000D0000E9415070C946B0A0C9400001F93CF9399
:1000E000DF93EC0188819981009731F04D9701F100
:1000F0001982188283E04DC00E94CD0085E28F9363
:1001000080E88F9380E391E09F938F930E9437075D
:1001100060E072E082E092E00E940C020F900F908B
:100120000F900F908DE190E09983888381E031C03A
:100130006238D1F40E9424018823A1F30E94FC00BC
:10014000182F0E94D2001F921F931F921F9381E6C7
:1001500091E09F938F930E9437070F900F900F901D
:100160000F900F900F90DECF6838E1F682E092E0BA
:100170000E943302892BB1F286E991E00E94F000DF
:1001800082EC91E00E94730782E092E00E941602E6
:10019000C9CFDF91CF911F91089552985A9A539ADF
:1001A0005B9A08955B98EFE9F1E03197F1F700C0B1
:1001B000000098E080FF02C05B9A01C05B98EFE905
:1001C000F1E03197F1F700C000008695915091F76A
:1001D0005B9A8FE991E00197F1F700C00000089564
:1001E000CF93DF93EC018991882319F00E94D2000C
:1001F000FACFDF91CF9108954A99FECF8FEC90E02E
:100200000197F1F700C0000020E030E080E041E01D
:1002100050E0EFE9F1E03197F1F700C000004A9BB0
:1002200007C0BA01022E01C0660F0A94EAF7862BB6
:100230002F5F3F4F2830310561F7EFE9F1E031974B
:10024000F1F700C00000089589B182FB882780F98A
:1002500091E08927089580910C0290910D02892BDD
:1002600029F410920B0210920A0208950E94A4022F
:10027000E0910C02F0910D02208131814281538185
:10028000240F351F281B390B0480F581E02D309792
:1002900069F06081718142815381460F571F481B6D
:1002A000590B4217530780F79A01EECF820F931F25
:1002B00090930B0280930A02089588E091E00C94D9
:1002C0001305EF92FF920F931F93CF93DF938C014F
:1002D000FC0180819181009799F08A359105D9F0D0
:1002E000F8011182108283E068C0868197814817E7
:1002F000590709F049C00480F581E02D3097A9F72E
:1003000010920D0210920C028AE590E0F8019183A0
:10031000808381E052C0673891F16238A9F7C091BB
:100320000C02D0910D02E12CF12C209769F3CE0143
:100330000E940D06892BF1F0AE0168E88E819F8145
:100340000E94BE04892BA1F41F821E828C819D8194
:10035000E114F10421F0F7019583848304C09093A4
:100360000D0280930C021D821C820E942B01D7CFAC
:100370000E945D017E010C80DD81C02DD6CFE09111
:100380000C02F0910D02BACFF0930D02E0930C0233
:10039000A481B581109709F4B7CF16968D919C91E1
:1003A00017974817590739F414968D919C91159712
:1003B00095838483EDCFFD01EBCFDF91CF911F912A
:1003C0000F91FF90EF900895CF93DF93EC010E947F
:1003D0005D012E813F8190910C0280910D02232BB3
:1003E00059F0E92FF82F309739F0EC17FD0781F01D
:1003F0000480F581E02DF7CF209111023091120297
:100400003F832E839C838D83D0930D02C0930C0277
:10041000DF91CF910C942B01CF93DF93EC010E94DD
:10042000ED05CE01DF91CF910C94E401CF93DF93E2
:10043000EC010E94F905CE01DF91CF910C94E4010B
:10044000CF93DF93EC010E940306CE01DF91CF91A1
:100450000C94E401FC0120813181620F731F7183D0
:1004600060830C942B0121E030E0FC0186819781B0
:10047000892B11F020E030E0C9010895FC012081B2
:10048000318182819381820F931F0895FC018081C5
:100490009181089581E090E020910C0230910D024D
:1004A000232B11F480E090E0089580910C0290914C
:1004B0000D02892B29F080910A0290910B02089578
:1004C00080E090E00895CF93DF93EC01E0910C027F
:1004D000F0910D02E817F90769F48C819D819093E2
:1004E0000D0280930C020DC084819581C817D90735
:1004F00021F0FC013097C1F706C08C819D81958366
:1005000084830E942B011D821C821F821E82DF9128
:10051000CF91089546E067E680E00E94B70680E04C
:100520000E940C076BEB75E080E00C94E506F894F4
:1005300016BC83EF87BD82E084BD94E095BD15BAFB
:1005400080936E007894089580910F02909110022C
:1005500020910F023091100282179307A9F7089596
:100560000F931F936091530370915403809155032F
:100570009091560300915303109154032091550319
:1005800030915603601771078207930759F71F913F
:100590000F91089560935303709354038093550310
:1005A000909356030895CF93DF93EC010E94A40229
:1005B000C80FD91F0E94A4028C1B9D0B97FDFACF78
:1005C000DF91CF910895009731F0880F991F880F20
:1005D000991F0197F1F7089520EA3FE0019720F075
:1005E000F9013197F1F7FACF0895CF92DF92EF92A8
:1005F000FF92EFB7F89420910F0230911002280F6C
:10060000391F3093100220930F0220910E02820FA7
:10061000911D40914F03509150036091510370918F
:1006200052039C012F3F3105C1F0B8F03A95C090BC
:100630005303D0905403E0905503F0905603FFEF1E
:10064000CF1ADF0AEF0AFF0AC0925303D092540375
:10065000E0925503F0925603E5CF292F3327420F3E
:10066000531F611D711D40934F03509350036093BE
:10067000510370935203322F2227821B930B8093D6
:100680000E02EFBFFF90EF90DF90CF9008951F9282
:100690000F920FB60F9211242F933F934F935F93B6
:1006A0006F937F938F939F93AF93BF93EF93FF933A
:1006B00080910F0290911002019690931002809306
:1006C0000F0280910E028F5F80930E020E944A02F9
:1006D000892B11F00E945D01FF91EF91BF91AF91C5
:1006E0009F918F917F916F915F914F913F912F914A
:1006F0000F900FBE0F901F9018951F93CF93DF930D
:10070000DC011296ED91FC9113973097E1F0162FD2
:10071000EC01909312028093110282E08E83CD014E
:1007200004960995082E000C990B0297029710F079
:10073000133839F4BE01CE01DF91CF911F910C9493
:10074000AD0381E08E83DF91CF911F910895FC016D
:10075000268120FD0C947D030895CF92DF92EF92C5
:10076000FF920F931F93CF93DF93E0901102F090CD
:1007700012020091130210911402F801E817F90710
:1007800039F0309709F44BC00190F081E02DF6CF9D
:10079000009709F444C06B01EC018E81882309F1B4
:1007A0001E820115110561F00C171D0729F0AE011D
:1007B00067E8C8010E94A703F80100811181F1CF09
:1007C000EA81FB81309769F0CC15DD0551F0D093BB
:1007D0001202C093110240E050E063E8CE0104969B
:1007E0000995E0911302F0911402CE17DF0741F44E
:1007F0008881998190931402809313020CC0FC01AC
:10080000309749F080819181C817D907C1F7888155
:10081000998191838083F0921202E0921102DF911C
:10082000CF911F910F91FF90EF90DF90CF9008959F
:100830001F93CF93DF9310921A02C0911302D091AD
:10084000140211E0209779F08F81882341F01E83F4
:100850001F8240E050E062E8CE010E947D030990D3
:10086000D881C02DEFCFDF91CF911F910895809156
:10087000450291E0980F909345020895609111020E
:10088000709112020C94AD038AE880934502109295
:1008900043021092440210925703109214021092D5
:1008A00013021092120210921102089580911A02FE
:1008B00081110E94180490914402992309F44EC0BA
:1008C000E09143022E2F30E085E0E89FF0011124F3
:1008D000E55EFD4F60816093190241815281509322
:1008E0001802409317020380F481E02D2F5F3F4FE1
:1008F00027703327209343029150909344023097FE
:1009000031F5809113029091140290931602809316
:1009100015028091150290911602892BF9F08091B1
:100920001A0281110E941804409117025091180276
:100930006091190280911502909116020E94A703FE
:10094000E0911502F091160280819181DECF61382D
:1009500011F481E08683CF010E94A70380911A02DF
:100960002091440290E0820F911D089580911A0217
:100970002091440290E0820F911D08959C01909176
:1009800044029830D1F0E0914302E90FE77085E02E
:10099000E89FF0011124E55EFD4F6083528341839F
:1009A0003483238381E0890F80934402909157031D
:1009B000981730F48093570303C081E090E00895C6
:1009C00080E090E00895CF93DF93C0911102D09121
:1009D00012020E94A703D0931202C0931102DF916A
:1009E000CF910895AB013091130220911402E32FAF
:1009F000F22FE817F907B1F0309721F00190F0815C
:100A0000E02DF7CF009771F0FC01308321839093A4
:100A100014028093130221E026831582148261E878
:100A20000C94E3040895009749F0FC0126812150BD
:100A3000223020F421E0278320931A02089521E038
:100A400030E0FC018681811102C020E030E0C90164
:100A50000895CF93DF93C0E1D1E0899199910097F8
:100A600029F060E070E00E94F204F7CFDF91CF91AF
:100A70000895CF93DF93EC0189919991009729F024
:100A800060E070E00E94F204F7CFDF91CF9108950B
:100A9000CF93DF93EC0189919991009719F00E940F
:100AA0003E04F9CFDF91CF910895CF93DF93EC010E
:100AB000888199818836910579F08A37910509F402
:100AC00053C0892B09F04CC00E943704809358030F
:100AD0001092C8021092C70289E493E00E945F0658
:100AE0008F3F2FEF920719F488E690E036C02091EF
:100AF000C7023091C8028A30910579F02F3731054D
:100B00005CF7A9014F5F5F4F5093C8024093C70243
:100B1000F901E95BFD4F8083DFCFC9010196909316
:100B2000C8028093C702F901E95BFD4F108247E4D8
:100B300052E06091580380E090E00E94BE0440E0E3
:100B400050E065E880911102909112020E94BE046B
:100B5000892B09F0BDCF8AE790E09983888307C08D
:100B60001982188283E004C0653809F4B1CF81E0AE
:100B7000DF91CF9108958D3001F1682F8091460269
:100B800081110AC089E493E00E943F06892B71F429
:100B900081E0809346020AC06A3041F489E493E020
:100BA0000E943F06892B11F01092460286E191E0E7
:100BB0000E94130581E090E0089580E090E00895A0
:100BC00040E869EC72E089E493E00E94370660E057
:100BD00070E086E191E00C94F204CF93DF93EC0196
:100BE0007B836A830E94A40299838883DF91CF91DB
:100BF0000895FC012081318182819381820F931FAE
:100C0000918380830895CF93DF93EC010E94A40227
:100C100099838883DF91CF910895CF93DF93EC017F
:100C20000E94A40228813981821B930B9C012F5FB3
:100C30003F4F81E090E04A815B814217530710F0FB
:100C400080E090E0DF91CF910895CF93DF93FC0196
:100C5000C081D18182819381C80FD91F0E94A402D3
:100C60009E01281B390BC901DF91CF910895FC012A
:100C70007183608341504283138214820895FC0182
:100C80008381228130E090E04481DC01A41BB10922
:100C9000AD01422353232417350771F020813181A0
:100CA000D901A80FB91F6C9383818F5F928189232B
:100CB000838381E090E0089580E090E00895FC0156
:100CC00034812281838190E0432F50E0841B950B77
:100CD000622F70E086239723892B59F080819181C0
:100CE000DC01A40FB51F8C913F5F2323248390E088
:100CF00008958FEF9FEF0895FC01828190E00196A7
:100D00000895FC01238130E08481281B3109828110
:100D100090E08223932308951F920F920FB60F92B3
:100D200011242F933F934F935F936F937F938F93F0
:100D30009F93AF93BF93EF93FF938091C600E09191
:100D40005903F0915A03309709F00995FF91EF91FB
:100D5000BF91AF919F918F917F916F915F914F91D3
:100D60003F912F910F900FBE0F901F9018958111FA
:100D70000DC01092C5006093C40088E98093C10043
:100D80004093C20010925A031092590308958111A2
:100D900006C08091C00085FFFCCF6093C600089517
:100DA000CF93C82F8A3031F46DE080914E030E94BA
:100DB000C70602C08D3029F06C2F80914E030E942F
:100DC000C70680E090E0CF910895811104C0709330
:100DD0005A036093590308951F93CF93DF93182FFD
:100DE000EB018881882369F08A3021F46DE0812F3E
:100DF0000E94C70669916D30A1F3812F0E94C7063A
:100E0000F0CFDF91CF911F9108959091C00095FF91
:100E1000FCCF8093C600089580934E038EE191E04D
:100E200090935E0380935D0308950E948A020E945E
:100E300097020E9444040E9429052D980E94E00513
:100E40008CE291E00E94390589E790E09F938F93AF
:100E50000E944D0788E690E09F938F930E944D0774
:100E60000F900F900F900F900E945604FDCFA0E0BE
:100E7000B0E0EDE3F7E00C94440AAE014B5F5F4F46
:100E8000FA0161917191AF0180915D0390915E03D0
:100E90000E94A307E2E00C94600AA0E0B0E0E3E562
:100EA000F7E00C94420AAE01495F5F4FDA016D91A1
:100EB0007D91AD010BE513E0F80182819381DC01A6
:100EC00013962C911397286013962C930E94A307D6
:100ED000D8011296ED91FC9113972381277F2383EC
:100EE000E4E00C945E0A0F931F93CF93DF93E0919D
:100EF0005D03F0915E03238121FF1BC08C01D0E0D4
:100F0000C0E0F80181918F0160915D0370915E03F3
:100F1000DB011896ED91FC911997882331F0099522
:100F2000892B79F3DFEFCFEFECCF8AE00995892B9E
:100F300019F08FEF9FEF02C08D2F9C2FDF91CF9183
:100F40001F910F910895ABE0B0E0E9EAF7E00C944F
:100F5000340A6C017B018A01FC01178216828381AD
:100F600081FFCCC1CE0101963C01F6019381F701CE
:100F700093FD859193FF81917F01882309F4BAC184
:100F8000853239F493FD859193FF81917F018532FC
:100F900029F4B60190E00E949A09E7CF912C212C08
:100FA000312CFFE1F315D8F08B3279F038F4803230
:100FB00079F08332A1F4232D20611DC08D3261F0C0
:100FC000803369F4232D216016C0832D8260382E72
:100FD000E32DE4603E2E2AC0F32DF8601DC037FCDF
:100FE0002DC020ED280F2A3040F08E32B9F436FCA7
:100FF00081C1232D2064322E19C036FE06C08AE03E
:10100000989E200D1124922E11C0EAE02E9E200DF4
:101010001124222EF32DF0623F2E08C08C3621F4CD
:10102000832D8068382E02C0883641F4F70193FD85
:10103000859193FF81917F018111B3CF982F9F7D7F
:101040009554933028F40C5F1F4F9FE399830DC094
:10105000833631F0833771F0833509F059C021C0F0
:10106000F801808189830E5F1F4F88248394912C1F
:10107000530113C02801F2E04F0E511CF801A0806B
:10108000B18036FE03C0692D70E002C06FEF7FEFC4
:10109000C5010E948F094C018201F32DFF773F2E7D
:1010A00016C0280122E0420E511CF801A080B18038
:1010B00036FE03C0692D70E002C06FEF7FEFC501FF
:1010C0000E9484094C01F32DF0683F2E820133FC0D
:1010D0001BC0822D90E088169906B0F4B60180E21C
:1010E00090E00E949A092A94F4CFF50137FC85918B
:1010F00037FE81915F01B60190E00E949A092110AC
:101100002A9421E0821A91088114910471F7E8C0B1
:10111000843611F0893641F5F80137FE07C0608149
:101120007181828193810C5F1F4F08C06081718142
:10113000072E000C880B990B0E5F1F4FF32DFF76C7
:101140003F2E97FF09C090958095709561957F4FD0
:101150008F4F9F4FF0683F2E2AE030E0A3010E949E
:10116000D609882E861845C0853731F4232D2F7E69
:10117000B22E2AE030E025C0932D997FB92E8F360C
:10118000C1F018F4883579F0B5C0803719F0883788
:1011900021F0B0C0E92FE061BE2EB4FE0DC0FB2DE2
:1011A000F460BF2E09C034FE0AC0292F2660B22E7B
:1011B00006C028E030E005C020E130E002C020E1B8
:1011C00032E0F801B7FE07C06081718182819381AE
:1011D0000C5F1F4F06C06081718180E090E00E5F60
:1011E0001F4FA3010E94D609882E8618FB2DFF777A
:1011F0003F2E36FE0DC0232D2E7FA22E891458F4CB
:1012000034FE0BC032FC09C0832D8E7EA82E05C093
:10121000B82CA32C03C0B82C01C0B92CA4FE0FC05D
:10122000FE01E80DF11D8081803321F49A2D997E15
:10123000A92E09C0A2FE06C0B394B39404C08A2D9F
:10124000867809F0B394A3FC11C0A0FE06C0B214C6
:1012500088F4280C922C9B180EC0B21460F4B601CE
:1012600080E290E00E949A09B394F7CFB21418F488
:101270002B1802C0982C212CA4FE10C0B60180E3CC
:1012800090E00E949A09A2FE17C0A1FC03C088E763
:1012900090E002C088E590E0B6010CC08A2D867807
:1012A00059F0A1FE02C08BE201C080E2A7FC8DE2F2
:1012B000B60190E00E949A09891438F4B60180E3DF
:1012C00090E00E949A099A94F7CF8A94F301E80D6E
:1012D000F11D8081B60190E00E949A098110F5CF3E
:1012E000222009F442CEB60180E290E00E949A09E1
:1012F0002A94F6CFF6018681978102C08FEF9FEF87
:101300002B96E2E10C94500AFC010590615070406C
:101310000110D8F7809590958E0F9F1F0895FC01BE
:101320006150704001900110D8F7809590958E0F14
:101330009F1F08950F931F93CF93DF93FB0123818A
:1013400021FD03C08FEF9FEF2CC022FF16C0468106
:101350005781248135814217530744F4A081B1811C
:101360009D012F5F3F4F318320838C9326813781EE
:101370002F5F3F4F3783268314C08B01EC01FB01A5
:101380000084F185E02D0995892BE1F6D8011696A8
:101390008D919C911797019617969C938E93169713
:1013A000CE01DF91CF911F910F910895FA01AA27E5
:1013B000283051F1203181F1E8946F936E7F6E5F98
:1013C0007F4F8F4F9F4FAF4FB1E03ED0B4E03CD046
:1013D000670F781F891F9A1FA11D680F791F8A1F29
:1013E000911DA11D6A0F711D811D911DA11D20D090
:1013F00009F468943F912AE0269F11243019305D4A
:101400003193DEF6CF010895462F4770405D41933A
:10141000B3E00FD0C9F7F6CF462F4F70405D4A3387
:1014200018F0495D31FD4052419302D0A9F7EACF4F
:10143000B4E0A6959795879577956795BA95C9F77E
:1014400000976105710508959B01AC010A2E069471
:101450005795479537952795BA95C9F7620F731F2A
:10146000841F951FA01D08952F923F924F925F9267
:101470006F927F928F929F92AF92BF92CF92DF92A4
:10148000EF92FF920F931F93CF93DF93CDB7DEB709
:10149000CA1BDB0B0FB6F894DEBF0FBECDBF09949D
:1014A0002A88398848885F846E847D848C849B84F4
:1014B000AA84B984C884DF80EE80FD800C811B8102
:1014C000AA81B981CE0FD11D0FB6F894DEBF0FBE31
:0A14D000CDBFED010895F894FFCFA1
:1014DA0000006E0000000000000061010000000032
:1014EA000801160100000000550500000000000078
:1014FA00000200000000D006000000000001000009
:10150A00536F66747761726520554152542028449E
:10151A00322F44332920696E696369616C697A6183
:10152A00646120636F6D20257520626175642E0ADF
:10153A0000536F66742055415254205265636562A8
:10154A0069646F3A2025632028307825303258297B
:10155A002C20456E7669616E646F20646520766F13
:10156A006C74612E0A0048656C6C6F2066726F6D30
:10157A0020436F6E74696B6920536F66747761726A
:10158A00652055415254202844322F443329210DD5
:10159A000A00536F6674205541525420456E76698D
:1015AA0061646F3A202248656C6C6F2066726F6DB9
:1015BA0020436F6E74696B6920536F66747761722A
:1015CA00652055415254202844322F443329212280
:0215DA0000000F
:00000001FF
