:100000000C944F000C946C000C946C000C941E012A
:100010000C946C000C946C000C946C000C946C00B0
:100020000C946C000C946C000C946C000C944E01BD
:100030000C946C000C946C000C9476060C946C0080
:100040000C946C000C946C000C9422070C946C00C3
:100050000C946C000C946C000C946C000C946C0070
:100060000C946C000C946C0053797374656D206F64
:100070006E6C696E652E0D0A000D0A2A2A2A2A2A3C
:100080002A2A2A424F4F54494E4720434F4E544943
:100090004B492A2A2A2A2A2A2A2A2A0D0A00112406
:1000A0001FBECFEFD8E0DEBFCDBF12E0A0E0B1E0D1
:1000B000E6E0F6E102C005900D92A632B107D9F74D
:1000C00023E0A6E2B2E001C01D92A938B207E1F731
:1000D0000E94AB070C94010B0C940000FF920F934D
:1000E0001F93CF93DF93EC01162F042FF52E8881F9
:1000F0009981009731F0839731F11982188283E05A
:1001000053C00E94DA0085E28F9380E88F9380E3EA
:1001100091E09F938F930E94CD070E944C0283E64B
:1001200091E00E94090860E073E086E292E00E949C
:10013000E6040F900F900F900F9083E290E0998368
:10014000888381E031C080917703861318C0FF92C5
:100150000F9389E891E09F938F930E94CD078FEAD8
:1001600091E00E941201802F9F2D0E94120181EECA
:1001700091E00E9412010F900F900F900F9018388D
:10018000E1F686E292E00E940D05892BB1F286EB42
:1001900091E00E94120184EE91E00E94090886E23B
:1001A00092E00E94F004C9CFDF91CF911F910F918F
:1001B000FF90089523982B9A229A2A9AE8E6F0E075
:1001C000808181608083EBE6F0E0808188608083BD
:1001D000E1E8F0E0808188608083808181608083B5
:1001E000EFE6F0E080818C7F808378940895F89426
:1001F0002A98ECE2F2E03197F1F798E02CE232E055
:1002000080FF02C02A9A01C02A98F9013197F1F7BC
:1002100086959150A9F72A9A8CE292E00197F1F71E
:1002200078940895CF93DF93EC018991882319F096
:100230000E94F700FACFDF91CF9108951F920F929D
:100240000FB60F9211248F939F931B9920C080911A
:10025000300290913102892BD1F481E090E09093AB
:10026000310280933002809168008E7F8093680015
:1002700083EC99E090938900809388001092850028
:100280001092840080916F00826080936F009F9134
:100290008F910F900FBE0F901F9018951F920F9285
:1002A0000FB60F9211242F933F934F935F936F9349
:1002B0007F938F939F93AF93BF93EF93FF9382E8C6
:1002C00096E090938900809388008091300290910D
:1002D00031028230910579F08330910579F10197EF
:1002E00089F510922F0210922E0282E090E09093F6
:1002F00031028093300280912E028830A0F41B9B43
:100300000DC030912E0220912F0281E090E001C0BB
:10031000880F3A95EAF7822B80932F0280912E0264
:100320008F5F80932E0280912E028830C9F483E083
:1003300090E0909331028093300212C080912F029E
:100340000E942702109231021092300280916F00B9
:100350008D7F80936F00809168008160809368003A
:10036000FF91EF91BF91AF919F918F917F916F918D
:100370005F914F913F912F910F900FBE0F901F9063
:100380001895CF93DF93EC01888199818836910588
:1003900079F08A37910509F453C0892B09F04CC0D4
:1003A0000E941303809377031092B4021092B30259
:1003B00085E393E00E948C058F3F2FEF920719F49D
:1003C00088E690E036C02091B3023091B4028A30C2
:1003D000910579F02F3731055CF7A9014F5F5F4F29
:1003E0005093B4024093B302F901ED5CFD4F80835A
:1003F000DFCFC90101969093B4028093B302F90153
:10040000ED5CFD4F108243E352E06091770380E0A2
:1004100090E00E949A0340E050E065E880913A0342
:1004200090913B030E949A03892B09F0BDCF8AE784
:1004300090E09983888307C01982188283E004C002
:10044000653809F4B1CF81E0DF91CF9108958D3007
:1004500001F1682F8091320281110AC085E393E097
:100460000E946C05892B71F481E0809332020AC0EE
:100470006A3041F485E393E00E946C05892B11F00A
:100480001092320288E091E00E94EF0381E090E058
:10049000089580E090E0089540E865EB72E085E320
:1004A00093E00E94640560E070E088E091E00C94C5
:1004B000CE031F93CF93DF93DC011296ED91FC9155
:1004C00013973097E1F0162FEC0190933B03809344
:1004D0003A0382E08E83CD0104960995082E000C24
:1004E000990B0297029710F0133839F4BE01CE0130
:1004F000DF91CF911F910C94890281E08E83DF916F
:10050000CF911F910895FC01268120FD0C94590282
:100510000895CF92DF92EF92FF920F931F93CF93A4
:10052000DF93E0903A03F0903B0300913C0310917D
:100530003D03F801E817F90739F0309709F44BC08B
:100540000190F081E02DF6CF009709F444C06B01D3
:10055000EC018E81882309F11E820115110561F0DD
:100560000C171D0729F0AE0167E8C8010E9483023D
:10057000F80100811181F1CFEA81FB81309769F0A8
:10058000CC15DD0551F0D0933B03C0933A0340E016
:1005900050E063E8CE0104960995E0913C03F091A8
:1005A0003D03CE17DF0741F48881998190933D0385
:1005B00080933C030CC0FC01309749F0808191810D
:1005C000C817D907C1F78881998191838083F092F8
:1005D0003B03E0923A03DF91CF911F910F91FF907F
:1005E000EF90DF90CF9008951F93CF93DF931092F9
:1005F0004303C0913C03D0913D0311E0209779F073
:100600008F81882341F01E831F8240E050E062E822
:10061000CE010E9459020990D881C02DEFCFDF9101
:10062000CF911F91089580916E0391E0980F909360
:100630006E03089560913A0370913B030C94890214
:100640008AE880936E0310926C0310926D031092EF
:10065000780310923D0310923C0310923B031092DA
:100660003A0308958091430381110E94F40290910E
:100670006D03992309F44EC0E0916C032E2F30E0F6
:1006800085E0E89FF0011124EC5BFC4F60816093F2
:1006900042034181528150934103409340030380C0
:1006A000F481E02D2F5F3F4F2770332720936C0399
:1006B000915090936D03309731F580913C03909168
:1006C0003D0390933F0380933E0380913E039091BE
:1006D0003F03892BF9F08091430381110E94F402BA
:1006E00040914003509141036091420380913E0349
:1006F00090913F030E948302E0913E03F0913F03FB
:1007000080819181DECF613811F481E08683CF0151
:100710000E9483028091430320916D0390E0820F39
:10072000911D08958091430320916D0390E0820F05
:10073000911D08959C0190916D039830D1F0E09146
:100740006C03E90FE77085E0E89FF0011124EC5B92
:10075000FC4F6083528341833483238381E0890F7C
:1007600080936D0390917803981730F48093780309
:1007700003C081E090E0089580E090E00895CF9379
:10078000DF93C0913A03D0913B030E948302D09340
:100790003B03C0933A03DF91CF910895AB013091B1
:1007A0003C0320913D03E32FF22FE817F907B1F046
:1007B000309721F00190F081E02DF7CF009771F094
:1007C000FC013083218390933D0380933C0321E01F
:1007D00026831582148261E80C94BF030895009764
:1007E00049F0FC0126812150223020F421E02783AA
:1007F00020934303089521E030E0FC0186818111BC
:1008000002C020E030E0C901089580917103909109
:100810007203892B29F41092700310926F030895CC
:100820000E94D305E0917103F09172032081318120
:1008300042815381240F351F281B390B0480F58119
:10084000E02D309769F06081718142815381460FBC
:10085000571F481B590B4217530780F79A01EECFD9
:10086000820F931F9093700380936F03089580E12C
:1008700091E00C94EF03EF92FF920F931F93CF93AD
:10088000DF938C01FC0180819181009799F08A357A
:100890009105D9F0F8011182108283E068C0868149
:1008A00097814817590709F049C00480F581E02D68
:1008B0003097A9F710927203109271038AE590E0C5
:1008C000F8019183808381E052C0673891F16238EA
:1008D000A9F7C0917103D0917203E12CF12C2097FC
:1008E00069F3CE010E94F806892BF1F0AE0168E8A9
:1008F0008E819F810E949A03892BA1F41F821E8200
:100900008C819D81E114F10421F0F70195838483AA
:1009100004C090937203809371031D821C820E9415
:100920000504D7CF0E9437047E010C80DD81C02DE5
:10093000D6CFE0917103F0917203BACFF0937203B6
:10094000E0937103A481B581109709F4B7CF16968F
:100950008D919C9117974817590739F414968D91EA
:100960009C91159795838483EDCFFD01EBCFDF91AB
:10097000CF911F910F91FF90EF900895CF93DF9348
:10098000EC010E9437042E813F8190917103809188
:100990007203232B59F0E92FF82F309739F0EC1719
:1009A000FD0781F00480F581E02DF7CF20913A0317
:1009B00030913B033F832E839C838D83D0937203BE
:1009C000C0937103DF91CF910C940504CF93DF9313
:1009D000EC010E94D806CE01DF91CF910C94BE04A9
:1009E000CF93DF93EC010E94E406CE01DF91CF911B
:1009F0000C94BE04CF93DF93EC010E94EE06CE016F
:100A0000DF91CF910C94BE04FC0120813181620FF3
:100A1000731F718360830C94050421E030E0FC01B6
:100A200086819781892B11F020E030E0C90108957B
:100A3000FC012081318182819381820F931F08956F
:100A4000FC0180819181089581E090E02091710303
:100A500030917203232B11F480E090E0089580918F
:100A6000710390917203892B29F080916F0390910B
:100A70007003089580E090E00895CF93DF93EC0138
:100A8000E0917103F0917203E817F90769F48C8122
:100A90009D8190937203809371030DC08481958131
:100AA000C817D90721F0FC013097C1F706C08C8127
:100AB0009D81958384830E9405041D821C821F8270
:100AC0001E82DF91CF910895FC01718360834150B4
:100AD0004283138214820895FC018381228130E0D5
:100AE00090E04481DC01A41BB109AD0142235323F2
:100AF0002417350771F020813181D901A80FB91F62
:100B00006C9383818F5F92818923838381E090E05E
:100B1000089580E090E00895FC0134812281838172
:100B200090E0432F50E0841B950B622F70E08623EA
:100B30009723892B59F080819181DC01A40FB51F87
:100B40008C913F5F2323248390E008958FEF9FEFE4
:100B50000895FC01828190E001960895FC012381B3
:100B600030E08481281B3109828190E08223932325
:100B7000089546E067E680E00E944D0780E00E940D
:100B8000A20767E272E080E00C947B07F89416BC41
:100B900083EF87BD82E084BD94E095BD15BA809354
:100BA0006E0078940895809174039091750320915C
:100BB00074033091750382179307A9F708950F9373
:100BC0001F9360917D0370917E0380917F039091CC
:100BD000800300917D0310917E0320917F0330916B
:100BE0008003601771078207930759F71F910F91D0
:100BF000089560937D0370937E0380937F039093A9
:100C000080030895CF93DF93EC010E94D305C80FB2
:100C1000D91F0E94D3058C1B9D0B97FDFACFDF9146
:100C2000CF910895009731F0880F991F880F991F71
:100C30000197F1F7089520EA3FE0019720F0F901CC
:100C40003197F1F7FACF0895CF92DF92EF92FF92AA
:100C5000EFB7F8942091740330917503280F391F72
:100C6000309375032093740320917303820F911DB9
:100C70004091790350917A0360917B0370917C03DA
:100C80009C012F3F3105C1F0B8F03A95C0907D032B
:100C9000D0907E03E0907F03F0908003FFEFCF1AA7
:100CA000DF0AEF0AFF0AC0927D03D0927E03E09232
:100CB0007F03F0928003E5CF292F3327420F531F84
:100CC000611D711D4093790350937A0360937B03F8
:100CD00070937C03322F2227821B930B8093730324
:100CE000EFBFFF90EF90DF90CF9008951F920F928B
:100CF0000FB60F9211242F933F934F935F936F93EF
:100D00007F938F939F93AF93BF93EF93FF938091C4
:100D10007403909175030196909375038093740307
:100D2000809173038F5F809373030E942405892B46
:100D300011F00E943704FF91EF91BF91AF919F9105
:100D40008F917F916F915F914F913F912F910F9074
:100D50000FBE0F901F901895CF93DF93C8E1D1E09D
:100D600089919991009729F060E070E00E94CE038C
:100D7000F7CFDF91CF910895CF93DF93EC01899165
:100D80009991009729F060E070E00E94CE03F7CFC0
:100D9000DF91CF910895CF93DF93EC0189919991E1
:100DA000009719F00E941A03F9CFDF91CF910895AF
:100DB000CF93DF93EC017B836A830E94D3059983F1
:100DC0008883DF91CF910895FC0120813181828158
:100DD0009381820F931F918380830895CF93DF9334
:100DE000EC010E94D30599838883DF91CF91089508
:100DF000CF93DF93EC010E94D30528813981821BB8
:100E0000930B9C012F5F3F4F81E090E04A815B8113
:100E10004217530710F080E090E0DF91CF910895E2
:100E2000CF93DF93FC01C081D18182819381C80F70
:100E3000D91F0E94D3059E01281B390BC901DF91E0
:100E4000CF9108951F920F920FB60F9211242F93F6
:100E50003F934F935F936F937F938F939F93AF9342
:100E6000BF93EF93FF938091C600E0918103F091CF
:100E70008203309709F00995FF91EF91BF91AF91EF
:100E80009F918F917F916F915F914F913F912F91A2
:100E90000F900FBE0F901F90189581110DC01092EA
:100EA000C5006093C40088E98093C1004093C200EC
:100EB00010928203109281030895811106C08091DF
:100EC000C00085FFFCCF6093C6000895CF93C82F64
:100ED0008A3031F46DE0809176030E945D0702C094
:100EE0008D3029F06C2F809176030E945D0780E0A1
:100EF00090E0CF910895811104C0709382036093B4
:100F0000810308951F93CF93DF93182FEB018881FE
:100F1000882369F08A3021F46DE0812F0E945D07FB
:100F200069916D30A1F3812F0E945D07F0CFDF91B1
:100F3000CF911F9108959091C00095FFFCCF8093B1
:100F4000C6000895809376038EE191E09093860326
:100F50008093850308950E94B9050E94C6050E94EA
:100F600020030E94AC062D980E944C028CE291E076
:100F70000E94BC0689E790E09F938F930E94E3074D
:100F800088E690E09F938F930E94E3070F900F9065
:100F90000F900F900E943203FDCFA0E0B0E0E3ED90
:100FA000F7E00C94DA0AAE014B5F5F4FFA016191F2
:100FB0007191AF0180918503909186030E94390859
:100FC000E2E00C94F60AA0E0B0E0E9EEF7E00C9461
:100FD000D80AAE01495F5F4FDA016D917D91AD0195
:100FE00003E813E0F80182819381DC0113962C91D0
:100FF0001397286013962C930E943908D8011296F3
:10100000ED91FC9113972381277F2383E4E00C94D7
:10101000F40A0F931F93CF93DF93E0918503F09130
:101020008603238121FF1BC08C01D0E0C0E0F801C2
:1010300081918F016091850370918603DB01189681
:10104000ED91FC911997882331F00995892B79F35B
:10105000DFEFCFEFECCF8AE00995892B19F08FEF06
:101060009FEF02C08D2F9C2FDF91CF911F910F9189
:101070000895ABE0B0E0EFE3F8E00C94CA0A6C012D
:101080007B018A01FC0117821682838181FFCCC11A
:10109000CE0101963C01F6019381F70193FD859104
:1010A00093FF81917F01882309F4BAC1853239F415
:1010B00093FD859193FF81917F01853229F4B601DB
:1010C00090E00E94300AE7CF912C212C312CFFE1D7
:1010D000F315D8F08B3279F038F4803279F083321E
:1010E000A1F4232D20611DC08D3261F0803369F49D
:1010F000232D216016C0832D8260382EE32DE460FD
:101100003E2E2AC0F32DF8601DC037FC2DC020ED07
:10111000280F2A3040F08E32B9F436FC81C1232DDD
:101120002064322E19C036FE06C08AE0989E200D3B
:101130001124922E11C0EAE02E9E200D1124222EA1
:10114000F32DF0623F2E08C08C3621F4832D806889
:10115000382E02C0883641F4F70193FD859193FF44
:1011600081917F018111B3CF982F9F7D955493304A
:1011700028F40C5F1F4F9FE399830DC0833631F035
:10118000833771F0833509F059C021C0F80180819F
:1011900089830E5F1F4F88248394912C530113C0C1
:1011A0002801F2E04F0E511CF801A080B18036FEFC
:1011B00003C0692D70E002C06FEF7FEFC5010E9490
:1011C000250A4C018201F32DFF773F2E16C028011E
:1011D00022E0420E511CF801A080B18036FE03C00F
:1011E000692D70E002C06FEF7FEFC5010E941A0AFF
:1011F0004C01F32DF0683F2E820133FC1BC0822D81
:1012000090E088169906B0F4B60180E290E00E9462
:10121000300A2A94F4CFF50137FC859137FE81918D
:101220005F01B60190E00E94300A21102A9421E06B
:10123000821A91088114910471F7E8C0843611F084
:10124000893641F5F80137FE07C0608171818281DE
:1012500093810C5F1F4F08C060817181072E000CC5
:10126000880B990B0E5F1F4FF32DFF763F2E97FFD4
:1012700009C090958095709561957F4F8F4F9F4FD6
:10128000F0683F2E2AE030E0A3010E946C0A882E0D
:10129000861845C0853731F4232D2F7EB22E2AE0E3
:1012A00030E025C0932D997FB92E8F36C1F018F408
:1012B000883579F0B5C0803719F0883721F0B0C093
:1012C000E92FE061BE2EB4FE0DC0FB2DF460BF2EF1
:1012D00009C034FE0AC0292F2660B22E06C028E0BD
:1012E00030E005C020E130E002C020E132E0F8014A
:1012F000B7FE07C060817181828193810C5F1F4FAF
:1013000006C06081718180E090E00E5F1F4FA301F5
:101310000E946C0A882E8618FB2DFF773F2E36FE22
:101320000DC0232D2E7FA22E891458F434FE0BC03D
:1013300032FC09C0832D8E7EA82E05C0B82CA32CAC
:1013400003C0B82C01C0B92CA4FE0FC0FE01E80DEB
:10135000F11D8081803321F49A2D997EA92E09C038
:10136000A2FE06C0B394B39404C08A2D867809F017
:10137000B394A3FC11C0A0FE06C0B21488F4280CDC
:10138000922C9B180EC0B21460F4B60180E290E07B
:101390000E94300AB394F7CFB21418F42B1802C08D
:1013A000982C212CA4FE10C0B60180E390E00E948E
:1013B000300AA2FE17C0A1FC03C088E790E002C07B
:1013C00088E590E0B6010CC08A2D867859F0A1FE20
:1013D00002C08BE201C080E2A7FC8DE2B60190E082
:1013E0000E94300A891438F4B60180E390E00E942C
:1013F000300A9A94F7CF8A94F301E80DF11D8081A9
:10140000B60190E00E94300A8110F5CF222009F445
:1014100042CEB60180E290E00E94300A2A94F6CFD4
:10142000F6018681978102C08FEF9FEF2B96E2E154
:101430000C94E60AFC010590615070400110D8F749
:10144000809590958E0F9F1F0895FC01615070400C
:1014500001900110D8F7809590958E0F9F1F0895E9
:101460000F931F93CF93DF93FB01238121FD03C0D3
:101470008FEF9FEF2CC022FF16C046815781248139
:1014800035814217530744F4A081B1819D012F5F3C
:101490003F4F318320838C93268137812F5F3F4FCD
:1014A0003783268314C08B01EC01FB010084F18596
:1014B000E02D0995892BE1F6D80116968D919C9126
:1014C0001797019617969C938E931697CE01DF91EE
:1014D000CF911F910F910895FA01AA27283051F159
:1014E000203181F1E8946F936E7F6E5F7F4F8F4F55
:1014F0009F4FAF4FB1E03ED0B4E03CD0670F781FB4
:10150000891F9A1FA11D680F791F8A1F911DA11D98
:101510006A0F711D811D911DA11D20D009F46894D1
:101520003F912AE0269F11243019305D3193DEF679
:10153000CF010895462F4770405D4193B3E00FD02F
:10154000C9F7F6CF462F4F70405D4A3318F0495D1A
:1015500031FD4052419302D0A9F7EACFB4E0A695FD
:101560009795879577956795BA95C9F7009761051F
:10157000710508959B01AC010A2E06945795479575
:1015800037952795BA95C9F7620F731F841F951F6A
:10159000A01D08952F923F924F925F926F927F927B
:1015A0008F929F92AF92BF92CF92DF92EF92FF9273
:1015B0000F931F93CF93DF93CDB7DEB7CA1BDB0B1F
:1015C0000FB6F894DEBF0FBECDBF09942A883988C4
:1015D00048885F846E847D848C849B84AA84B984CB
:1015E000C884DF80EE80FD800C811B81AA81B981D7
:1015F000CE0FD11D0FB6F894DEBF0FBECDBFED01EB
:061600000895F894FFCFED
:1016060000006E00000000000000C10100000000A4
:1016160000003B040000000010010801000000006B
:101626000002000000006607000000000001000044
:10163600536F667477617265205541525420284471
:1016460031302F4431312920696E696369616C69D3
:101656007A61646120636F6D20257520626175640F
:101666002E0A00436F6E74696B6920736572696137
:101676006C2D6C696E652070726F6365737320697B
:101686006E69636961646F2E0053657269616C2DC2
:101696006C696E6520284431302F4431312920523F
:1016A6004543454249444F3A20272573270A0045BA
:1016B60063686F3A200048656C6C6F2066726F6DC8
:1016C60020436F6E74696B6920536F66747761721D
:1016D60065205541525420284431302F4431312958
:1016E600210D0A00536F6674205541525420456EF1
:1016F600766961646F3A202248656C6C6F20667269
:101706006F6D20436F6E74696B6920536F667477D3
:10171600617265205541525420284431302F44319E
:0617260031292122000020
:00000001FF
