:100000000C944F000C946C000C946C000C949401B4
:100010000C946C000C946C000C946C000C946C00B0
:100020000C946C000C946C000C946C000C94C40147
:100030000C946C000C946C000C94B00A0C946C0042
:100040000C946C000C946C000C94710C0C946C006F
:100050000C946C000C946C000C946C000C946C0070
:100060000C946C000C946C0053797374656D206F64
:100070006E6C696E652E0D0A000D0A2A2A2A2A2A3C
:100080002A2A2A424F4F54494E4720434F4E544943
:100090004B492A2A2A2A2A2A2A2A2A0D0A00112406
:1000A0001FBECFEFD8E0DEBFCDBF16E0A0E0B1E0CD
:1000B000E8EEF1E202C005900D92AE31B107D9F73A
:1000C00027E0AEE1B6E001C01D92A23CB207E1F725
:1000D0000E94440D0C94F2100C9400009F938F9397
:1000E0007F936F9388E591E09F938F930E948E0D8D
:1000F0000F900F900F900F900F900F9008959F9377
:100100008F937F936F938CE791E09F938F930E94DF
:100110008E0D0F900F900F900F900F900F900895ED
:10012000EF92FF920F931F93CF93DF93CDB7DEB77C
:10013000C456D1090FB6F894DEBF0FBECDBF8C01F7
:10014000F42EE52EFC0180819181009741F08836E4
:100150009105C9F1F8011182108283E066C087EA37
:1001600091E00E94CA0D60E070E088E091E00E949A
:10017000EE06E0915201F09153018FE790E009956E
:10018000E0915401F091550183E291E00995E091ED
:100190005601F09157018EE690E0099582EC91E0CE
:1001A0000E94CA0DE0914A01F0914B0181E009954E
:1001B00082E092E00E94CA0D88E690E0F801918307
:1001C000808381E032C08091B1078613F5CFEF9232
:1001D000FF928DE492E09F938F930E948E0DEF9299
:1001E000FF9281E793E09F938F931F9284E68F9312
:1001F000AE014F5F5F4F7A015F934F930E94FA0DFC
:100200009C01215031090FB6F894DEBF0FBECDBF5F
:100210002336310538F4682FC7010E9400058DE6AA
:1002200092E0C8CF8EE892E0C5CFCC59DF4F0FB631
:10023000F894DEBF0FBECDBFDF91CF911F910F911C
:10024000FF90EF900895CF93DF93D82FC92F9F93FE
:100250008F937F936F9387EB92E09F938F930E948E
:100260008E0D60EE72E08D2F9C2F0E94740D0F900A
:100270000F900F900F900F900F90892B31F081E02D
:1002800080931E0687EE92E004C010921E068FE156
:1002900093E0DF91CF910C94CA0D2398229A2A9A69
:1002A000E8E6F0E0808181608083EBE6F0E0808129
:1002B00088608083E1E8F0E08081886080838081CD
:1002C00081608083EFE6F0E080818D7F80830895F8
:1002D000F8942A98EFE9F1E03197F1F700C00000B7
:1002E00098E080FF02C02A9A01C02A98EFE9F1E065
:1002F0003197F1F700C000008695915091F72A9A46
:100300008FE991E00197F1F700C00000789408951B
:10031000CF93DF93EC018991882319F00E94680143
:10032000FACFDF91CF9108951F920F920FB60F92DF
:1003300011248F939F931B9920C080912106909147
:100340002206892BD1F481E090E0909322068093DD
:100350002106809168008E7F8093680083EC99E08D
:1003600090938900809388001092850010928400F9
:1003700080916F00826080936F009F918F910F90AA
:100380000FBE0F901F9018951F920F920FB60F92ED
:1003900011242F933F934F935F936F937F938F938A
:1003A0009F93AF93BF93EF93FF9382E896E0909370
:1003B00089008093880080912106909122068230E6
:1003C000910579F08330910579F1019799F51092B3
:1003D000200610921F0682E090E090932206809300
:1003E000210680911F068830A0F41B9B0DC0309120
:1003F0001F062091200681E090E001C0880F3A9509
:10040000EAF7822B8093200680911F068F5F8093EE
:100410001F0680911F068830D8F083E090E090930B
:1004200022068093210614C01B9B04C080912006E5
:100430000E948B07109222061092210680916F0075
:100440008D7F80936F008091680081608093680049
:10045000FF91EF91BF91AF919F918F917F916F919C
:100460005F914F913F912F910F900FBE0F901F9072
:100470001895909328068093270608959093260652
:10048000809325060895909324068093230608956B
:1004900068E08CE493E00E94000580E090E008951D
:1004A0006AE085E593E00E94000580E090E0089511
:1004B0000F931F93CF93DF93CDB7DEB7C054D1090D
:1004C0000FB6F894DEBF0FBECDBFFA010190002039
:1004D000E9F73197E41BF50B5F934F93FF93EF938D
:1004E0001F926F931F928F9380E693E09F938F9359
:1004F0001F9280E48F938E010F5F1F4F1F930F9306
:100500000E94FA0D9C01215031090FB6F894DEBF0C
:100510000FBECDBF2F33310538F4682FC8010E94BC
:10052000000580E090E002C08FEF9FEFC05CDF4FDE
:100530000FB6F894DEBF0FBECDBFDF91CF911F91F4
:100540000F9108950F931F93CF93DF93CDB7DEB72D
:10055000A0970FB6F894DEBF0FBECDBF1F928F934A
:1005600086E793E09F938F931F9280E28F938E0193
:100570000F5F1F4F1F930F930E94FA0DF801019018
:100580000020E9F73197BF01601B710BC8010E9481
:10059000000569E082E893E00E94000520E030E079
:1005A0004AEE52E060E07EE187E496E00E94E208D5
:1005B0000FB6F894DEBF0FBECDBF80E090E0A096EE
:1005C0000FB6F894DEBF0FBECDBFDF91CF911F9164
:1005D0000F9108958CE893E00E94CA0DE0912306E4
:1005E000F0912406309729F06CE070E082EB93E004
:1005F000099408950F931F93CF93C62F8A018FEB11
:1006000093E00E94CA0DE0912306F09124063097F2
:1006100039F06C2F70E0C801CF911F910F910994B0
:10062000CF911F910F9108950F931F93CF93C62FD2
:100630008A0185ED93E00E94CA0DE0912706F091B2
:100640002806309739F06C2F70E0C801CF911F91C8
:100650000F910994CF911F910F910895EF92FF92FE
:100660000F9384E1E82E83E0F82E00E422E048EEC8
:1006700053E068E071E08DE396E00E943F059AEF59
:10068000E92E92E0F92E25E04BEE53E068E071E0B0
:1006900083E396E00E943F0525E7E22E23E0F22E59
:1006A00025E041EF53E068E071E089E296E00E94C6
:1006B0003F0560916206709163063BE0E32E34E0F3
:1006C000F32E00E820E04FE553E087E596E00E9436
:1006D0003F0565E087EF93E00E9400058DEF93E012
:1006E0000F91FF90EF900C94CA0DEF92FF921F9321
:1006F000CF93DF93162FEA01E62EF12CDF934F9371
:100700001F926F938EE294E09F938F930E948E0DC1
:1007100060EE72E0CE010E94740D0F900F900F906A
:100720000F900F900F90892B91F088E494E00E9435
:10073000CA0DE0912506F09126063097C1F0B70169
:10074000CE01DF91CF911F91FF90EF900994DF933D
:10075000CF931F921F938BE694E09F938F930E94F9
:100760008E0D0F900F900F900F900F900F90DF91C4
:10077000CF911F91FF90EF9008950F931F93CF9308
:10078000DF938C01FC0180819181009741F08C30D6
:10079000914091F0F8011182108283E037C00E94ED
:1007A00033068093AA070E942E038CE091E0F801A3
:1007B0009183808381E02AC08091AA078613F5CFB8
:1007C0004115510591F3FA0180819181009769F3F8
:1007D000EA012296DF93CF939F938F938DE894E065
:1007E0009F938F930E948E0D62EA74E0CE010E9467
:1007F000740D0F900F900F900F900F900F90892B0A
:10080000A1F289EA94E00E94CA0DCFCFDF91CF9187
:100810001F910F9108950F931F93CF93DF9366233A
:1008200009F452C04115510509F44EC0EA01062FE2
:1008300010E01F926F93DF934F9386EC94E09F93A9
:100840008F930E948E0DE0912706F09128060F905D
:100850000F900F900F900F900F90309719F0B801F4
:10086000CE0109956EEE74E0CE010E94740D892BC5
:1008700079F08091250690912606892B69F184EF05
:1008800094E00E94CA0DE0912506F091260615C05D
:100890006BEE73E0CE010E94740D892BE9F080911C
:1008A000230690912406892BB9F083E295E00E94FB
:1008B000CA0DE0912306F0912406B801CE01DF9124
:1008C000CF911F910F91099483E595E0DF91CF912E
:1008D0001F910F910C94CA0DDF91CF911F910F9131
:1008E00008955F926F927F928F929F92AF92BF9284
:1008F000CF92DF92EF92FF920F931F93CF93DF93EC
:100900006C018A01FC0180819181009709F455C036
:100910008234910529F0F6011182108283E05AC0D9
:100920008091B10786134EC00115110509F44AC024
:10093000F80101900020E9F731977F01E01AF10AF0
:100940007E2CEE2061F01F930F9383E995E09F9337
:100950008F930E948E0D0F900F900F900F908091AB
:10096000AD079091AE070E94C107EC01892B29F1D8
:100970008A809B80B401C8010E94740D5C015D8077
:10098000571420F1009711F16C80462D50E0BC0106
:10099000C4010E94660D892BC9F4761015C0EE8142
:1009A000FF81A5016E2DCE01099540E050E06091D8
:1009B000AF07888599850E94BA0682E490E0F60127
:1009C0009183808381E006C0651448F3CE010E94C4
:1009D0006908CBCFDF91CF911F910F91FF90EF90DE
:1009E000DF90CF90BF90AF909F908F907F906F904F
:1009F0005F9008958091AD079091AE070C94C10768
:100A00000F931F93CF93DF93D62F8C01C0E0011576
:100A1000110559F0F80181918F01882331F0CD172C
:100A200021F00E946801CF5FF2CF8C2FDF91CF9130
:100A30001F910F9108958091610681111FC08091CF
:100A4000AD079091AE070E94BD070E9433068093C8
:100A5000AF0781E0809361060E944D0184EA95E032
:100A60000E94CA0D0E94B00760E070E080E191E052
:100A70000E94EE068AED95E00C94CA0D0895EF925F
:100A8000FF920F93CF93DF93EC018AE0FE01119266
:100A90008A95E9F7FF82EE825B834A832C830D837C
:100AA00079876887BE018091AD079091AE070E945B
:100AB00021088D811F928F938C811F928F938B8140
:100AC0008F938A818F9388EF95E09F938F930E94F5
:100AD0008E0D8DB79EB708960FB6F8949EBF0FBEC9
:100AE0008DBF80E090E0DF91CF910F91FF90EF906C
:100AF00008951F93CF93DF93DC011296ED91FC9143
:100B000013973097E1F0162FEC01909363068093D2
:100B1000620682E08E83CD0104960995082E000CB2
:100B2000990B0297029710F0133839F4BE01CE01E9
:100B3000DF91CF911F910C94A90581E08E83DF9105
:100B4000CF911F910895FC01268120FD0C94790519
:100B50000895CF92DF92EF92FF920F931F93CF935E
:100B6000DF93E0906206F0906306009164061091B6
:100B70006506F801E817F90739F0309709F44BC01A
:100B80000190F081E02DF6CF009709F444C06B018D
:100B9000EC018E81882309F11E820115110561F097
:100BA0000C171D0729F0AE0167E8C8010E94A305D4
:100BB000F80100811181F1CFEA81FB81309769F062
:100BC000CC15DD0551F0D0936306C093620640E07A
:100BD00050E063E8CE0104960995E0916406F09137
:100BE0006506CE17DF0741F48881998190936506E9
:100BF000809364060CC0FC01309749F0808191819C
:100C0000C817D907C1F78881998191838083F092B1
:100C10006306E0926206DF91CF911F910F91FF90E2
:100C2000EF90DF90CF9008951F93CF93DF931092B2
:100C30006B06C0916406D091650611E0209779F0AB
:100C40008F81882341F01E831F8240E050E062E8DC
:100C5000CE010E9479050990D881C02DEFCFDF9198
:100C6000CF911F9108958091960691E0980F9093EF
:100C70009606089560916206709163060C94A9052A
:100C80008AE8809396061092940610929506109228
:100C9000B0071092650610926406109263061092D7
:100CA0006206089580916B0681110E94140690914E
:100CB0009506992309F44EC0E09194062E2F30E05A
:100CC00085E0E89FF0011124E459F94F60816093B9
:100CD0006A064181528150936906409368060380F9
:100CE000F481E02D2F5F3F4F277033272093940628
:100CF000915090939506309731F5809164069091CC
:100D000065069093670680936606809166069091CB
:100D10006706892BF9F080916B0681110E941406F9
:100D2000409168065091690660916A068091660656
:100D3000909167060E94A305E0916606F091670610
:100D400080819181DECF613811F481E08683CF010B
:100D50000E94A30580916B062091950690E0820F7A
:100D6000911D089580916B062091950690E0820F69
:100D7000911D08959C01909195069830D1F0E091D5
:100D80009406E90FE77085E0E89FF0011124E4592B
:100D9000F94F6083528341833483238381E0890F39
:100DA000809395069091B007981730F48093B00720
:100DB00003C081E090E0089580E090E00895CF9333
:100DC000DF93C0916206D09163060E94A305D09381
:100DD0006306C0936206DF91CF910895AB01309115
:100DE000640620916506E32FF22FE817F907B1F0AA
:100DF000309721F00190F081E02DF7CF009771F04E
:100E0000FC0130832183909365068093640621E082
:100E100026831582148261E80C94DF0608950097FA
:100E200049F0FC0126812150223020F421E0278363
:100E300020936B06089521E030E0FC01868181114A
:100E400002C020E030E0C9010895CF93DF93EC01A8
:100E5000888199818836910579F08A37910509F45E
:100E600053C0892B09F04CC00E9433068093B10710
:100E700010921907109218078AE997E00E94C60994
:100E80008F3F2FEF920719F488E690E036C020914B
:100E90001807309119078A30910579F02F373105FD
:100EA0005CF7A9014F5F5F4F5093190740931807F4
:100EB000F901E856F94F8083DFCFC901019690937D
:100EC000190780931807F901E856F94F108248E98D
:100ED00056E06091B10780E090E00E94BA0640E0E1
:100EE00050E065E880916206909163060E94BA0620
:100EF000892B09F0BDCF8AE790E09983888307C0EA
:100F00001982188283E004C0653809F4B1CF81E00A
:100F1000DF91CF9108958D3001F1682F8091970670
:100F200081110AC08AE997E00E94A609892B71F411
:100F300081E0809397060AC06A3041F48AE997E01D
:100F40000E94A609892B11F01092970688E191E082
:100F50000E940F0781E090E0089580E090E00895FE
:100F600040E86AE177E08AE997E00E949E0960E044
:100F700070E088E191E00C94EE06FC011182108291
:100F80000895FC01808191810895FB0120813181C8
:100F9000FC01318320830895DC01ED91FC913097B1
:100FA00041F080819181009711F0FC01FACFCF01CF
:100FB000089580E090E00895DC01ED91FC91119797
:100FC0003097A9F020813181232B21F41D921C92AE
:100FD000CF010895A081B1818D919C911197892BAA
:100FE00011F0FD01F7CF11821082CD01089580E04C
:100FF00090E00895DC01ED91FC911197309721F07C
:10100000208131812D933C93CF010895DC01ED9136
:10101000FC913097A9F0A0E0B0E0208131816E17FB
:101020007F0741F4109709F4DC012D933C93118262
:1010300010820895DF012115310511F0F901EDCF7E
:1010400008950F931F93CF93DF938C01EB010E94C0
:10105000060819821882C8010E94CC07009711F473
:10106000F80101C0FC01D183C083DF91CF911F91B2
:101070000F9108950F931F93CF93DF93EC018B0192
:101080000E94060888819981F801918380831983E1
:101090000883DF91CF911F910F910895DC01ED91AD
:1010A000FC9180E090E0309729F001960190F0816A
:1010B000E02DF9CF0895FB01309719F4BA010C9493
:1010C0003A0880819181DA018D939C93518340830A
:1010D0000895009721F0FC0180819181089580E0BE
:1010E00090E00895EF92FF920F931F93CF93DF93B9
:1010F0008C017A01FC0180819181009741F08B3451
:10110000910501F1F8011182108283E048C080EA64
:1011100097E00E94C107EC01209751F06C817D811E
:10112000CE0102960E94F30B0990D881C02DF4CF16
:1011300081E080939F078BE490E0F80191838083A6
:1011400081E02DC06838E1F780EA97E00E94C1078E
:10115000EC01209781F3CE010296E816F906D9F446
:10116000BE0180EA97E00E940608E0906206F090D7
:1011700063068A859B859093630680936206EC855F
:10118000FD85309719F08E859F850995F09263064D
:10119000E0926206D0CF0990D881C02DDACFDF91DE
:1011A000CF911F910F91FF90EF90089510929F079C
:1011B00080EA97E00E94BD0760E070E080E291E085
:1011C0000C94EE060F931F93CF93DF93EC010091E5
:1011D0006206109163061B870A875D874C873F87ED
:1011E0002E8780919F07882379F080E291E0909389
:1011F000630680936206CE0102960E94F30B109361
:1012000063060093620602C07D836C83BE0180EAA0
:1012100097E00E940608BE0180EA97E0DF91CF9137
:101220001F910F910C9421080F931F93CF93DF937D
:10123000EC0180919F07882391F000916206109144
:10124000630680E291E09093630680936206CE018C
:1012500002960E94FD0B1093630600936206BE0186
:1012600080EA97E00E940608BE0180EA97E0DF91DD
:10127000CF911F910F910C9421080F931F93CF933F
:10128000DF93EC0180919F07882391F00091620623
:101290001091630680E291E090936306809362066A
:1012A000CE0102960E94070C10936306009362061B
:1012B000BE0180EA97E00E940608BE0180EA97E03E
:1012C000DF91CF911F910F910C942108CF93DF9361
:1012D000EC0180919F07882329F0CE0102960E949D
:1012E0004A0C04C01F821E8219861886BE0180EA3D
:1012F00097E0DF91CF910C940608CF93DF93209174
:101300009F07222329F00296DF91CF910C941A0CAB
:10131000EC0180EA97E00E94C107009739F08C1732
:101320009D0739F0FC0180819181F7CF81E090E049
:1013300002C080E090E0DF91CF910895FC017183BD
:10134000608341504283138214820895FC0183819B
:10135000228130E090E04481DC01A41BB109AD01A1
:10136000422353232417350771F020813181D9019D
:10137000A80FB91F6C9383818F5F92818923838328
:1013800081E090E0089580E090E00895FC013481D0
:101390002281838190E0432F50E0841B950B622FC4
:1013A00070E086239723892B59F080819181DC019D
:1013B000A40FB51F8C913F5F2323248390E00895F1
:1013C0008FEF9FEF0895FC01828190E001960895D0
:1013D000FC01238130E08481281B3109828190E067
:1013E00082239323089546E067E680E00E949C0CE8
:1013F00080E00E94F10C6BE877E080E00C94CA0C6E
:10140000F89416BC83EF87BD82E084BD94E095BD5F
:1014100015BA80936E00789408958091A3079091F7
:10142000A4072091A3073091A40782179307A9F777
:1014300008950F931F936091B6077091B70780913D
:10144000B8079091B9070091B6071091B70720919E
:10145000B8073091B907601771078207930759F7EA
:101460001F910F9108956093B6077093B70780930B
:10147000B8079093B9070895CF93DF93EC010E94CA
:101480000D0AC80FD91F0E940D0A8C1B9D0B97FDDA
:10149000FACFDF91CF910895009731F0880F991F0F
:1014A000880F991F0197F1F7089520EA3FE001970F
:1014B00020F0F9013197F1F7FACF0895CF92DF923A
:1014C000EF92FF92EFB7F8942091A3073091A40711
:1014D000280F391F3093A4072093A3072091A20758
:1014E000820F911D4091B2075091B3076091B407EC
:1014F0007091B5079C012F3F3105C1F0B8F03A95C6
:10150000C090B607D090B707E090B807F090B90741
:10151000FFEFCF1ADF0AEF0AFF0AC092B607D09298
:10152000B707E092B807F092B907E5CF292F332724
:10153000420F531F611D711D4093B2075093B307B3
:101540006093B4077093B507322F2227821B930B49
:101550008093A207EFBFFF90EF90DF90CF900895A8
:101560001F920F920FB60F9211242F933F934F9318
:101570005F936F937F938F939F93AF93BF93EF93FB
:10158000FF938091A3079091A40701969093A407DD
:101590008093A3078091A2078F5F8093A2070E9488
:1015A000310C892B11F00E94440BFF91EF91BF91F8
:1015B000AF919F918F917F916F915F914F913F91EB
:1015C0002F910F900FBE0F901F901895CF93DF9320
:1015D000C8E2D1E089919991009729F060E070E02C
:1015E0000E94EE06F7CFDF91CF910895CF93DF935E
:1015F000EC0189919991009729F060E070E00E94D8
:10160000EE06F7CFDF91CF910895CF93DF93EC01F2
:1016100089919991009719F00E943A06F9CFDF91CC
:10162000CF9108958091A7079091A807892B29F45D
:101630001092A6071092A50708950E940D0AE09146
:10164000A707F091A8072081318142815381240F9F
:10165000351F281B390B0480F581E02D309769F088
:101660006081718142815381460F571F481B590B7E
:101670004217530780F79A01EECF820F931F909382
:10168000A6078093A50708958EE291E00C940F07BA
:10169000EF92FF920F931F93CF93DF938C01FC0186
:1016A00080819181009799F08A359105D9F0F801F0
:1016B0001182108283E068C086819781481759079C
:1016C00009F049C00480F581E02D3097A9F7109208
:1016D000A8071092A7078AE590E0F801918380831C
:1016E00081E052C0673891F16238A9F7C091A7072D
:1016F000D091A807E12CF12C209769F3CE010E942C
:101700001A0D892BF1F0AE0168E88E819F810E944D
:10171000BA06892BA1F41F821E828C819D81E1145F
:10172000F10421F0F7019583848304C09093A80706
:101730008093A7071D821C820E94120BD7CF0E94A4
:10174000440B7E010C80DD81C02DD6CFE091A70730
:10175000F091A807BACFF093A807E093A707A48158
:10176000B581109709F4B7CF16968D919C91179774
:101770004817590739F414968D919C9115979583C4
:101780008483EDCFFD01EBCFDF91CF911F910F91BE
:10179000FF90EF900895CF93DF93EC010E94440BEC
:1017A0002E813F819091A7078091A807232B59F0A4
:1017B000E92FF82F309739F0EC17FD0781F00480FE
:1017C000F581E02DF7CF20916206309163063F83CB
:1017D0002E839C838D83D093A807C093A707DF91A6
:1017E000CF910C94120BCF93DF93EC010E94FA0C73
:1017F000CE01DF91CF910C94CB0BCF93DF93EC0113
:101800000E94060DCE01DF91CF910C94CB0BCF93AC
:10181000DF93EC010E94100DCE01DF91CF910C946B
:10182000CB0BFC0120813181620F731F71836083B8
:101830000C94120B21E030E0FC0186819781892B0A
:1018400011F020E030E0C9010895FC0120813181D0
:1018500082819381820F931F0895FC018081918181
:10186000089581E090E02091A7073091A807232BED
:1018700011F480E090E008958091A7079091A80767
:10188000892B29F08091A5079091A607089580E003
:1018900090E00895CF93DF93EC01E091A707F091DA
:1018A000A807E817F90769F48C819D819093A80730
:1018B0008093A7070DC084819581C817D90721F0AF
:1018C000FC013097C1F706C08C819D81958384838C
:1018D0000E94120B1D821C821F821E82DF91CF91FB
:1018E00008951F920F920FB60F9211242F933F93DA
:1018F0004F935F936F937F938F939F93AF93BF9318
:10190000EF93FF938091C600E091BA07F091BB0777
:10191000309709F00995FF91EF91BF91AF919F9199
:101920008F917F916F915F914F913F912F910F9088
:101930000FBE0F901F90189581110DC01092C50019
:101940006093C40088E98093C1004093C200109264
:10195000BB071092BA070895811106C08091C0009C
:1019600085FFFCCF6093C6000895CF93C82F8A30BF
:1019700031F46DE08091A9070E94AC0C02C08D305B
:1019800029F06C2F8091A9070E94AC0C80E090E0B8
:10199000CF910895811104C07093BB076093BA077B
:1019A00008951F93CF93DF93182FEB01888188232D
:1019B00069F08A3021F46DE0812F0E94AC0C6991AE
:1019C0006D30A1F3812F0E94AC0CF0CFDF91CF914D
:1019D0001F9108959091C00095FFFCCF8093C600A1
:1019E00008958093A90786E391E09093BF078093C1
:1019F000BE070895CF93DF93EC017B836A830E9437
:101A00000D0A99838883DF91CF910895FC0120818D
:101A1000318182819381820F931F91838083089506
:101A2000CF93DF93EC010E940D0A99838883DF91A5
:101A3000CF910895CF93DF93EC010E940D0A288186
:101A40003981821B930B9C012F5F3F4F81E090E017
:101A50004A815B814217530710F080E090E0DF91EC
:101A6000CF910895CF93DF93FC01C081D181828112
:101A70009381C80FD91F0E940D0A9E01281B390BA4
:101A8000C901DF91CF9108950E94F3090E94000AD5
:101A90000E9440060E94E60A2D980E94B00784E446
:101AA00091E00E94F60A89E790E09F938F930E944D
:101AB000A40D88E690E09F938F930E94A40D0F9051
:101AC0000F900F900F900E945206FDCFFB01DC019A
:101AD0004150504030F08D910190801919F4002050
:101AE000B9F7881B990B0895FB0151915523A9F073
:101AF000BF01DC014D9145174111E1F759F4CD01CA
:101B00000190002049F04D9140154111C9F3FB01AE
:101B10004111EFCF81E090E001970895A0E0B0E09F
:101B2000E4E9FDE00C94CB10AE014B5F5F4FFA018E
:101B300061917191AF018091BE079091BF070E94A2
:101B40002A0EE2E00C94E710A0E0B0E0EAEAFDE043
:101B50000C94C910AE01495F5F4FDA016D917D9120
:101B6000AD010CEB17E0F80182819381DC01139643
:101B70002C911397286013962C930E942A0ED8015B
:101B80001296ED91FC9113972381277F2383E4E044
:101B90000C94E5100F931F93CF93DF93E091BE0752
:101BA000F091BF07238121FF1BC08C01D0E0C0E072
:101BB000F80181918F016091BE077091BF07DB0131
:101BC0001896ED91FC911997882331F00995892B8E
:101BD00079F3DFEFCFEFECCF8AE00995892B19F08D
:101BE0008FEF9FEF02C08D2F9C2FDF91CF911F9120
:101BF0000F910895AEE0B0E0E0E0FEE00C94C91073
:101C00000D891E898F89988D26E02C831A8309837C
:101C100097FF02C080E090E801979E838D83AE011C
:101C2000455E5F4F698D7A8DCE0101960E942A0E26
:101C30004D815E8157FD0AC02F81388542175307B9
:101C40000CF49A01F801E20FF31F10822E96E4E0E3
:101C50000C94E510ABE0B0E0E0E3FEE00C94BB10C8
:101C60006C017B018A01FC0117821682838181FF4E
:101C7000CCC1CE0101963C01F6019381F70193FDA1
:101C8000859193FF81917F01882309F4BAC1853240
:101C900039F493FD859193FF81917F01853229F479
:101CA000B60190E00E942110E7CF912C212C312C1D
:101CB000FFE1F315D8F08B3279F038F4803279F007
:101CC0008332A1F4232D20611DC08D3261F0803359
:101CD00069F4232D216016C0832D8260382EE32DF8
:101CE000E4603E2E2AC0F32DF8601DC037FC2DC0E5
:101CF00020ED280F2A3040F08E32B9F436FC81C135
:101D0000232D2064322E19C036FE06C08AE0989E2C
:101D1000200D1124922E11C0EAE02E9E200D1124D8
:101D2000222EF32DF0623F2E08C08C3621F4832D35
:101D30008068382E02C0883641F4F70193FD859102
:101D400093FF81917F018111B3CF982F9F7D95548F
:101D5000933028F40C5F1F4F9FE399830DC08336A7
:101D600031F0833771F0833509F059C021C0F80193
:101D7000808189830E5F1F4F88248394912C5301A7
:101D800013C02801F2E04F0E511CF801A080B18071
:101D900036FE03C0692D70E002C06FEF7FEFC50112
:101DA0000E9416104C018201F32DFF773F2E16C0C2
:101DB000280122E0420E511CF801A080B18036FEBD
:101DC00003C0692D70E002C06FEF7FEFC5010E9474
:101DD0000B104C01F32DF0683F2E820133FC1BC029
:101DE000822D90E088169906B0F4B60180E290E06A
:101DF0000E9421102A94F4CFF50137FC859137FE1B
:101E000081915F01B60190E00E94211021102A9477
:101E100021E0821A91088114910471F7E8C0843698
:101E200011F0893641F5F80137FE07C060817181F4
:101E3000828193810C5F1F4F08C060817181072EE2
:101E4000000C880B990B0E5F1F4FF32DFF763F2E72
:101E500097FF09C090958095709561957F4F8F4F42
:101E60009F4FF0683F2E2AE030E0A3010E945D10F2
:101E7000882E861845C0853731F4232D2F7EB22E4B
:101E80002AE030E025C0932D997FB92E8F36C1F01E
:101E900018F4883579F0B5C0803719F0883721F00B
:101EA000B0C0E92FE061BE2EB4FE0DC0FB2DF46082
:101EB000BF2E09C034FE0AC0292F2660B22E06C0EC
:101EC00028E030E005C020E130E002C020E132E04F
:101ED000F801B7FE07C060817181828193810C5F38
:101EE0001F4F06C06081718180E090E00E5F1F4F40
:101EF000A3010E945D10882E8618FB2DFF773F2ED0
:101F000036FE0DC0232D2E7FA22E891458F434FEE8
:101F10000BC032FC09C0832D8E7EA82E05C0B82CC4
:101F2000A32C03C0B82C01C0B92CA4FE0FC0FE0125
:101F3000E80DF11D8081803321F49A2D997EA92E20
:101F400009C0A2FE06C0B394B39404C08A2D86785B
:101F500009F0B394A3FC11C0A0FE06C0B21488F42B
:101F6000280C922C9B180EC0B21460F4B60180E2CB
:101F700090E00E942110B394F7CFB21418F42B18FC
:101F800002C0982C212CA4FE10C0B60180E390E082
:101F90000E942110A2FE17C0A1FC03C088E790E0B8
:101FA00002C088E590E0B6010CC08A2D867859F011
:101FB000A1FE02C08BE201C080E2A7FC8DE2B60167
:101FC00090E00E942110891438F4B60180E390E07B
:101FD0000E9421109A94F7CF8A94F301E80DF11D25
:101FE0008081B60190E00E9421108110F5CF22205F
:101FF00009F442CEB60180E290E00E9421102A94BA
:10200000F6CFF6018681978102C08FEF9FEF2B9666
:10201000E2E10C94D710FC01059061507040011072
:10202000D8F7809590958E0F9F1F0895FC01615001
:10203000704001900110D8F7809590958E0F9F1FEA
:1020400008950F931F93CF93DF93FB01238121FD0D
:1020500003C08FEF9FEF2CC022FF16C0468157812F
:10206000248135814217530744F4A081B1819D0139
:102070002F5F3F4F318320838C93268137812F5FE1
:102080003F4F3783268314C08B01EC01FB01008492
:10209000F185E02D0995892BE1F6D80116968D91F1
:1020A0009C911797019617969C938E931697CE0145
:1020B000DF91CF911F910F910895FA01AA2728303F
:1020C00051F1203181F1E8946F936E7F6E5F7F4F05
:1020D0008F4F9F4FAF4FB1E03ED0B4E03CD0670F81
:1020E000781F891F9A1FA11D680F791F8A1F911DD4
:1020F000A11D6A0F711D811D911DA11D20D009F424
:1021000068943F912AE0269F11243019305D319365
:10211000DEF6CF010895462F4770405D4193B3E04E
:102120000FD0C9F7F6CF462F4F70405D4A3318F0F5
:10213000495D31FD4052419302D0A9F7EACFB4E0A6
:10214000A6959795879577956795BA95C9F700975E
:102150006105710508959B01AC010A2E06945795FF
:10216000479537952795BA95C9F7620F731F841F56
:10217000951FA01D08952F923F924F925F926F92EC
:102180007F928F929F92AF92BF92CF92DF92EF9207
:10219000FF920F931F93CF93DF93CDB7DEB7CA1B88
:1021A000DB0B0FB6F894DEBF0FBECDBF09942A88B3
:1021B000398848885F846E847D848C849B84AA845B
:1021C000B984C884DF80EE80FD800C811B81AA81E8
:1021D000B981CE0FD11D0FB6F894DEBF0FBECDBFB3
:0821E000ED010895F894FFCF12
:1021E80000009000000000000000BD030000000097
:1021F8000000710400000000000025070000000036
:1022080000007208000000002E0118010000000004
:10221800480B000000000000000200000000B50CA0
:1022280000000000000100002E03A2025802500224
:10223800480239023E0243024150505F43423A206D
:102248004552524F204C41363620726563656269AB
:10225800646F3A2027252E2A73270A004150505FC1
:1022680043423A20526573706F737461204C413653
:1022780036202867656EC3A972696361293A2027E9
:10228800252E2A73270A004C413636204D61696E87
:102298002050726F6365737320496E696369616466
:1022A8006F004150503A20456E7669616E646F2028
:1022B800636F6D616E646F2041542B4E4A4D3D3102
:1022C8005C725C6E207061726120636F6E66696714
:1022D80075726172206D6F646F204F5441412E2ECC
:1022E8002E004150503A2050726F6E746F2070610A
:1022F8007261207265636562657220636F6D616EDD
:10230800646F732041542076696120736572696136
:102318006C2E204469676974652065207072657346
:1023280073696F6E6520456E7465722E004150505A
:102338003A20436F6D616E646F20646F207573750A
:10234800C3A172696F3A20272573270A00415050AC
:102358003A20436F6D616E646F20415420656E763C
:102368006961646F20616F204C4136362E00415000
:10237800503A204572726F3A20436F6D616E646FF8
:10238800206D7569746F206C6F6E676F206F752094
:1023980076617A696F2E004150505F43423A20536C
:1023A8007461747573206465204A6F696E20726564
:1023B80063656269646F3A2027252E2A73270A000D
:1023C8002B4E4A533A31004150505F43423A202A3B
:1023D8002A2A204DC3B364756C6F204C41363620D1
:1023E800434F4E45435441444F20C3A02072656477
:1023F80065204C6F526157414E21202A2A2A0041FC
:1024080050505F43423A204DC3B364756C6F204C03
:10241800413636204EC3834F20636F6E6563746107
:10242800646F202861696E6461292E0041542B4332
:1024380046470D0A0041542B4E4A533D3F0D0A00B2
:1024480041542B53454E443D25642C25642C25646A
:102458002C25730D0A0041542B4E4A4D3D25640D21
:102468000A0041542B4A4F494E0D0A004C4136365A
:102478003A2054696D656F757420616F2074656EBC
:10248800746172206A6F696E206E6120726564657E
:102498002E004A6F696E2054696D656F7574004C23
:1024A8004136363A204552524F522072656365696B
:1024B8007665642E004C4136363A204F4B207265C3
:1024C8006365697665642E004F4B004552524F5242
:1024D800002B4E4A533A0041545A0D0A004C4136DB
:1024E800363A2044726976657220696E696369615B
:1024F8006C697A61646F206520636F6D616E646FCB
:102508002041545A20656E766961646F2E004C41F3
:1025180036363A204E4A5320726573706F6E736573
:102528003A20252E2A730A004C4136363A20537534
:10253800636365737366756C6C79206A6F696E6521
:1025480064206E6574776F726B2E004C4136363A94
:10255800204E6F74206A6F696E65642028737461F9
:102568007475733A20252E2A73292E0A004C413699
:102578003620526573706F6E73653A20252E2A7364
:102588000A004A4F494E4544004E6574776F726B96
:10259800206A6F696E65642073756363657373661B
:1025A800756C6C7921004C4136365F43616C6C6206
:1025B80061636B3A20526563656269646F20272501
:1025C800732720286C656E3A202575290A002B4A46
:1025D8004F494E004C4136365F43616C6C62616313
:1025E8006B3A2044657370616368616E646F207034
:1025F800617261204A6F696E2043616C6C6261632D
:102608006B2E004C4136365F43616C6C6261636BC4
:102618003A2044657370616368616E646F2070610D
:102628007261204572726F722043616C6C626163E3
:102638006B2E004C4136365F43616C6C6261636B94
:102648003A204572726F3A204461646F73206E7548
:102658006C6F73206F7520636F6D7072696D656E36
:10266800746F207A65726F20726563656269646F42
:10267800732E0061745F70726F63657373203A2004
:1026880025730A0041543A20536F66747761726566
:10269800205541525420284431302F4431312920CB
:1026A800696E696369616C697A61646120706F72CF
:1026B8002061745F696E69742E0041543A204D613F
:1026C800737465722050726F636573736F20696EDF
:1026D80069636961646F2E0041543A2072656769C5
:1026E80073746572656420484452202573204C45F4
:0E26F8004E202575204D41582025750A000002
:00000001FF
