:100000000C947C000C9499000C9499000C94990029
:100010000C9499000C9499000C9499000C949900FC
:100020000C9499000C9499000C9499000C949900EC
:100030000C9499000C9499000C941E040C94990053
:100040000C9499000C9499000C9463070C949900FB
:100050000C9499000C9499000C9499000C949900BC
:100060000C9499000C94990053797374656D206F0A
:100070006E6C696E652E0D0A000D0A2A2A2A2A2A3C
:100080002A2A2A424F4F54494E4720434F4E544943
:100090004B492A2A2A2A2A2A2A2A2A0D0A0000003B
:1000A0000007000201000003040600000000000039
:1000B0000000010204081020408001020408102002
:1000C00001020408102004040404040404040202CD
:1000D00002020202030303030303000000002300E3
:1000E0002600290000000000250028002B00000049
:1000F0000000240027002A0011241FBECFEFD8E003
:10010000DEBFCDBF11E0A0E0B1E0ECECF6E102C053
:1001100005900D92A439B107D9F722E0A4E9B1E026
:1001200001C01D92A33FB207E1F70E94EC070C94B7
:10013000640B0C9400001F93CF93DF93EC01888134
:100140009981009731F04F9721F11982188283E04D
:1001500051C060E875E280E090E00E94FE0085E218
:100160008F9380E88F9380E391E09F938F930E9419
:10017000300860E072E084E991E00E9426020F906E
:100180000F900F900F908FE190E09983888381E02A
:1001900031C06238D1F40E943F018823A1F30E944C
:1001A0003801182F0E9425011F921F931F921F9341
:1001B00080E591E09F938F930E9430080F900F90FD
:1001C0000F900F900F900F90DECF6838E1F684E922
:1001D00091E00E944D02892BB1F287E691E00E94E6
:1001E0002C0182E891E00E946C0884E991E00E9471
:1001F0003002C9CFDF91CF911F910895CF92DF9246
:10020000EF92FF926B017C0160E080E00E94DA02D5
:1002100061E081E00E94DA0260E472E48FE090E045
:10022000A70196010E940E08215031093093C500A4
:100230002093C40088E18093C10086E08093C200CF
:10024000FF90EF90DF90CF9008959091C00095FFC0
:10025000FCCF8093C6000895CF93DF93EC01899182
:10026000882319F00E942501FACFDF91CF910895DC
:100270008091C00087FFFCCF8091C60008958091D7
:10028000C000881F8827881F089580919E01909143
:100290009F01892B29F410929D0110929C010895D1
:1002A0000E947B03E0919E01F0919F0120813181AA
:1002B00042815381240F351F281B390B0480F5819F
:1002C000E02D309769F06081718142815381460F42
:1002D000571F481B590B4217530780F79A01EECF5F
:1002E000820F931F90939D0180939C01089588E055
:1002F00091E00C94EA05EF92FF920F931F93CF9336
:10030000DF938C01FC0180819181009799F08A35FF
:100310009105D9F0F8011182108283E068C08681CE
:1003200097814817590709F049C00480F581E02DED
:100330003097A9F710929F0110929E018AE590E0F4
:10034000F8019183808381E052C0673891F162386F
:10035000A9F7C0919E01D0919F01E12CF12C20972B
:1003600069F3CE010E94E406892BF1F0AE0168E842
:100370008E819F810E949505892BA1F41F821E8288
:100380008C819D81E114F10421F0F7019583848330
:1003900004C090939F0180939E011D821C820E9445
:1003A0004501D7CF0E9477017E010C80DD81C02DF1
:1003B000D6CFE0919E01F0919F01BACFF0939F01BB
:1003C000E0939E01A481B581109709F4B7CF1696EA
:1003D0008D919C9117974817590739F414968D9170
:1003E0009C91159795838483EDCFFD01EBCFDF9131
:1003F000CF911F910F91FF90EF900895CF93DF93CE
:10040000EC010E9477012E813F8190919E018091A5
:100410009F01232B59F0E92FF82F309739F0EC1773
:10042000FD0781F00480F581E02DF7CF2091A30135
:100430003091A4013F832E839C838D83D0939F01B1
:10044000C0939E01DF91CF910C944501CF93DF9330
:10045000EC010E94C406CE01DF91CF910C94FE0105
:10046000CF93DF93EC010E94D006CE01DF91CF91B4
:100470000C94FE01CF93DF93EC010E94DA06CE01CB
:10048000DF91CF910C94FE01FC0120813181620F3C
:10049000731F718360830C94450121E030E0FC01FF
:1004A00086819781892B11F020E030E0C901089501
:1004B000FC012081318182819381820F931F0895F5
:1004C000FC0180819181089581E090E020919E015E
:1004D00030919F01232B11F480E090E008958091EA
:1004E0009E0190919F01892B29F080919C01909110
:1004F0009D01089580E090E00895CF93DF93EC0193
:10050000E0919E01F0919F01E817F90769F48C8151
:100510009D8190939F0180939E010DC08481958160
:10052000C817D90721F0FC013097C1F706C08C81AC
:100530009D81958384830E9445011D821C821F82B8
:100540001E82DF91CF91089546E067E680E00E9429
:100550008E0780E00E94E30762E976E080E00C9479
:10056000BC07833081F028F4813099F08230A1F00B
:1005700008958630A9F08730B9F08430D1F48091A5
:1005800080008F7D03C0809180008F7780938000F2
:10059000089584B58F7702C084B58F7D84BD08959A
:1005A0008091B0008F7703C08091B0008F7D8093E1
:1005B000B0000895CF93DF9390E0FC01EE54FF4F1D
:1005C0002491FC01EA53FF4F8491882361F190E06C
:1005D000880F991FFC01E251FF4FC591D491FC0196
:1005E000EC51FF4FA591B491611109C09FB7F894E8
:1005F0008881209582238883EC912E230BC0623062
:1006000061F49FB7F8948881322F309583238883D3
:10061000EC912E2B2C939FBF06C08FB7F894E881E6
:100620002E2B28838FBFDF91CF9108951F93CF93F7
:10063000DF93282F30E0F901E256FF4F8491F90152
:10064000EE54FF4FD491F901EA53FF4FC491CC23EC
:10065000C1F0162F81110E94B102EC2FF0E0EE0FD5
:10066000FF1FEC51FF4FA591B4919FB7F894111162
:1006700004C08C91D095D82302C0EC91DE2BDC9382
:100680009FBFDF91CF911F910895CF93DF93282FC4
:1006900030E0F901E256FF4F8491F901EE54FF4F2B
:1006A000D491F901EA53FF4FC491CC2391F0811109
:1006B0000E94B102EC2FF0E0EE0FFF1FE652FF4F59
:1006C000A591B491EC91ED2381E090E021F480E0DC
:1006D00002C080E090E0DF91CF910895F89416BCBD
:1006E00083EF87BD82E084BD94E095BD15BA809309
:1006F0006E00789408958091A1019091A2012091BB
:10070000A1013091A20182179307A9F708950F93D1
:100710001F936091E5027091E6028091E70290914B
:10072000E8020091E5021091E6022091E702309183
:10073000E802601771078207930759F71F910F911D
:1007400008956093E5027093E6028093E702909328
:10075000E8020895CF93DF93EC010E947B03C80F5A
:10076000D91F0E947B038C1B9D0B97FDFACFDF9155
:10077000CF910895009731F0880F991F880F991F26
:100780000197F1F7089520EA3FE0019720F0F90181
:100790003197F1F7FACF0895CF92DF92EF92FF925F
:1007A000EFB7F8942091A1013091A201280F391FD1
:1007B0003093A2012093A1012091A001820F911DED
:1007C0004091E1025091E2026091E3027091E402F3
:1007D0009C012F3F3105C1F0B8F03A95C090E50279
:1007E000D090E602E090E702F090E802FFEFCF1A27
:1007F000DF0AEF0AFF0AC092E502D092E602E09219
:10080000E702F092E802E5CF292F3327420F531F6A
:10081000611D711D4093E1025093E2026093E30277
:100820007093E402322F2227821B930B8093A00146
:10083000EFBFFF90EF90DF90CF9008951F920F923F
:100840000FB60F9211242F933F934F935F936F93A3
:100850007F938F939F93AF93BF93EF93FF93809179
:10086000A1019091A20101969093A2018093A10110
:100870008091A0018F5F8093A0010E946402892B68
:1008800011F00E947701FF91EF91BF91AF919F917D
:100890008F917F916F915F914F913F912F910F9029
:1008A0000FBE0F901F9018951F93CF93DF93DC011D
:1008B0001296ED91FC9113973097E1F0162FEC0111
:1008C0009093A4018093A30182E08E83CD010496CE
:1008D0000995082E000C990B0297029710F0133817
:1008E00039F4BE01CE01DF91CF911F910C948404A5
:1008F00081E08E83DF91CF911F910895FC012681C5
:1009000020FD0C9454040895CF92DF92EF92FF9251
:100910000F931F93CF93DF93E090A301F090A40176
:100920000091A5011091A601F801E817F90739F027
:10093000309709F44BC00190F081E02DF6CF00977D
:1009400009F444C06B01EC018E81882309F11E82F9
:100950000115110561F00C171D0729F0AE0167E8BC
:10096000C8010E947E04F80100811181F1CFEA8163
:10097000FB81309769F0CC15DD0551F0D093A401CF
:10098000C093A30140E050E063E8CE0104960995CE
:10099000E091A501F091A601CE17DF0741F488810F
:1009A00099819093A6018093A5010CC0FC0130971A
:1009B00049F080819181C817D907C1F78881998151
:1009C00091838083F092A401E092A301DF91CF9103
:1009D0001F910F91FF90EF90DF90CF9008951F939C
:1009E000CF93DF931092AC01C091A501D091A601E5
:1009F00011E0209779F08F81882341F01E831F82B8
:100A000040E050E062E8CE010E9454040990D88191
:100A1000C02DEFCFDF91CF911F9108958091D70125
:100A200091E0980F9093D70108956091A301709180
:100A3000A4010C9484048AE88093D7011092D50114
:100A40001092D6011092E9021092A6011092A5010F
:100A50001092A4011092A30108958091AC0181111C
:100A60000E94EF049091D601992309F44EC0E091C1
:100A7000D5012E2F30E085E0E89FF0011124E355E9
:100A8000FE4F60816093AB01418152815093AA0176
:100A90004093A9010380F481E02D2F5F3F4F277021
:100AA00033272093D50191509093D601309731F59B
:100AB0008091A5019091A6019093A8018093A70130
:100AC0008091A7019091A801892BF9F08091AC0148
:100AD00081110E94EF044091A9015091AA016091F7
:100AE000AB018091A7019091A8010E947E04E09142
:100AF000A701F091A80180819181DECF613811F4C6
:100B000081E08683CF010E947E048091AC01209118
:100B1000D60190E0820F911D08958091AC01209143
:100B2000D60190E0820F911D08959C019091D6010D
:100B30009830D1F0E091D501E90FE77085E0E89FAA
:100B4000F0011124E355FE4F6083528341833483C7
:100B5000238381E0890F8093D6019091E902981751
:100B600030F48093E90203C081E090E0089580E0D2
:100B700090E00895CF93DF93C091A301D091A40199
:100B80000E947E04D093A401C093A301DF91CF9172
:100B90000895AB013091A5012091A601E32FF22F1A
:100BA000E817F907B1F0309721F00190F081E02DBE
:100BB000F7CF009771F0FC01308321839093A60159
:100BC0008093A50121E026831582148261E80C94AC
:100BD000BA050895009749F0FC0126812150223082
:100BE00020F421E027832093AC01089521E030E038
:100BF000FC018681811102C020E030E0C901089526
:100C0000CF93DF93C0E1D1E089919991009729F0CA
:100C100060E070E00E94C905F7CFDF91CF910895A1
:100C2000CF93DF93EC0189919991009729F060E0CF
:100C300070E00E94C905F7CFDF91CF910895CF935F
:100C4000DF93EC0189919991009719F00E941505A5
:100C5000F9CFDF91CF910895CF93DF93EC01888195
:100C600099818836910579F08A37910509F453C046
:100C7000892B09F04CC00E940E058093EA02109265
:100C80005A02109259028BED92E00E9436078F3F74
:100C90002FEF920719F488E690E036C020915902B0
:100CA00030915A028A30910579F02F3731055CF77F
:100CB000A9014F5F5F4F50935A0240935902F901C7
:100CC000E752FE4F8083DFCFC901019690935A020D
:100CD00080935902F901E752FE4F108249ED51E02D
:100CE0006091EA0280E090E00E94950540E050E0CB
:100CF00065E88091A3019091A4010E949505892B3C
:100D000009F0BDCF8AE790E09983888307C01982F4
:100D1000188283E004C0653809F4B1CF81E0DF9127
:100D2000CF9108958D3001F1682F8091D801811104
:100D30000AC08BED92E00E941607892B71F481E0C6
:100D40008093D8010AC06A3041F48BED92E00E9492
:100D50001607892B11F01092D80186E191E00E94CC
:100D6000EA0581E090E0089580E090E0089540E891
:100D70006BE572E08BED92E00E940E0760E070E0A0
:100D800086E191E00C94C905CF93DF93EC017B835E
:100D90006A830E947B0399838883DF91CF910895B2
:100DA000FC012081318182819381820F931F918385
:100DB00080830895CF93DF93EC010E947B03998396
:100DC0008883DF91CF910895CF93DF93EC010E9448
:100DD0007B0328813981821B930B9C012F5F3F4F3E
:100DE00081E090E04A815B814217530710F080E078
:100DF00090E0DF91CF910895CF93DF93FC01C08104
:100E0000D18182819381C80FD91F0E947B039E01EB
:100E1000281B390BC901DF91CF910895FC01718323
:100E2000608341504283138214820895FC018381C0
:100E3000228130E090E04481DC01A41BB109AD01C6
:100E4000422353232417350771F020813181D901C2
:100E5000A80FB91F6C9383818F5F9281892383834D
:100E600081E090E0089580E090E00895FC013481F5
:100E70002281838190E0432F50E0841B950B622FE9
:100E800070E086239723892B59F080819181DC01C2
:100E9000A40FB51F8C913F5F2323248390E0089516
:100EA0008FEF9FEF0895FC01828190E001960895F5
:100EB000FC01238130E08481281B3109828190E08C
:100EC0008223932308951F920F920FB60F9211243D
:100ED0002F933F934F935F936F937F938F939F9342
:100EE000AF93BF93EF93FF938091C600E091EB0225
:100EF000F091EC02309709F00995FF91EF91BF91C5
:100F0000AF919F918F917F916F915F914F913F91A1
:100F10002F910F900FBE0F901F90189581110DC04B
:100F20001092C5006093C40088E98093C10040938B
:100F3000C2001092EC021092EB020895811106C0DB
:100F40008091C00085FFFCCF6093C6000895CF93C9
:100F5000C82F8A3031F46DE08091E0020E949E0734
:100F600002C08D3029F06C2F8091E0020E949E0714
:100F700080E090E0CF910895811104C07093EC025D
:100F80006093EB0208951F93CF93DF93182FEB012B
:100F90008881882369F08A3021F46DE0812F0E94D6
:100FA0009E0769916D30A1F3812F0E949E07F0CFBB
:100FB000DF91CF911F9108959091C00095FFFCCFD4
:100FC0008093C60008958093E0028EE191E09093B3
:100FD000F0028093EF0208950E94A4020E946E0323
:100FE0000E941B050E9400062D980E94B7068CE205
:100FF00091E00E94100689E790E09F938F930E94F2
:10100000460888E690E09F938F930E9446080F90D1
:101010000F900F900F900E942D05FDCFA1E21A2E88
:10102000AA1BBB1BFD010DC0AA1FBB1FEE1FFF1F8C
:10103000A217B307E407F50720F0A21BB30BE40BDC
:10104000F50B661F771F881F991F1A9469F7609523
:101050007095809590959B01AC01BD01CF010895DD
:10106000A0E0B0E0E6E3F8E00C943D0BAE014B5F8E
:101070005F4FFA0161917191AF018091EF02909100
:10108000F0020E949C08E2E00C94590BA0E0B0E052
:10109000ECE4F8E00C943B0BAE01495F5F4FDA01E2
:1010A0006D917D91AD010DEE12E0F8018281938189
:1010B000DC0113962C911397286013962C930E94B1
:1010C0009C08D8011296ED91FC9113972381277FFC
:1010D0002383E4E00C94570B0F931F93CF93DF937C
:1010E000E091EF02F091F002238121FF1BC08C01FF
:1010F000D0E0C0E0F80181918F016091EF02709122
:10110000F002DB011896ED91FC911997882331F0DC
:101110000995892B79F3DFEFCFEFECCF8AE00995C2
:10112000892B19F08FEF9FEF02C08D2F9C2FDF913D
:10113000CF911F910F910895ABE0B0E0E2EAF8E0A3
:101140000C942D0B6C017B018A01FC011782168225
:10115000838181FFCCC1CE0101963C01F6019381D0
:10116000F70193FD859193FF81917F01882309F415
:10117000BAC1853239F493FD859193FF81917F0146
:10118000853229F4B60190E00E94930AE7CF912CB2
:10119000212C312CFFE1F315D8F08B3279F038F4A3
:1011A000803279F08332A1F4232D20611DC08D326D
:1011B00061F0803369F4232D216016C0832D826095
:1011C000382EE32DE4603E2E2AC0F32DF8601DC0BA
:1011D00037FC2DC020ED280F2A3040F08E32B9F4B4
:1011E00036FC81C1232D2064322E19C036FE06C084
:1011F0008AE0989E200D1124922E11C0EAE02E9EC6
:10120000200D1124222EF32DF0623F2E08C08C36C3
:1012100021F4832D8068382E02C0883641F4F7010E
:1012200093FD859193FF81917F018111B3CF982F19
:101230009F7D9554933028F40C5F1F4F9FE3998353
:101240000DC0833631F0833771F0833509F059C012
:1012500021C0F801808189830E5F1F4F8824839409
:10126000912C530113C02801F2E04F0E511CF801DC
:10127000A080B18036FE03C0692D70E002C06FEF20
:101280007FEFC5010E94880A4C018201F32DFF7790
:101290003F2E16C0280122E0420E511CF801A0800A
:1012A000B18036FE03C0692D70E002C06FEF7FEFA2
:1012B000C5010E947D0A4C01F32DF0683F2E82018A
:1012C00033FC1BC0822D90E088169906B0F4B6015D
:1012D00080E290E00E94930A2A94F4CFF50137FC53
:1012E000859137FE81915F01B60190E00E94930ADB
:1012F00021102A9421E0821A91088114910471F737
:10130000E8C0843611F0893641F5F80137FE07C090
:1013100060817181828193810C5F1F4F08C0608161
:101320007181072E000C880B990B0E5F1F4FF32D58
:10133000FF763F2E97FF09C0909580957095619537
:101340007F4F8F4F9F4FF0683F2E2AE030E0A30180
:101350000E94CF0A882E861845C0853731F4232D88
:101360002F7EB22E2AE030E025C0932D997FB92E32
:101370008F36C1F018F4883579F0B5C0803719F090
:10138000883721F0B0C0E92FE061BE2EB4FE0DC059
:10139000FB2DF460BF2E09C034FE0AC0292F266041
:1013A000B22E06C028E030E005C020E130E002C0E7
:1013B00020E132E0F801B7FE07C0608171818281CF
:1013C00093810C5F1F4F06C06081718180E090E0C7
:1013D0000E5F1F4FA3010E94CF0A882E8618FB2D97
:1013E000FF773F2E36FE0DC0232D2E7FA22E8914AF
:1013F00058F434FE0BC032FC09C0832D8E7EA82E1B
:1014000005C0B82CA32C03C0B82C01C0B92CA4FE75
:101410000FC0FE01E80DF11D8081803321F49A2D6B
:10142000997EA92E09C0A2FE06C0B394B39404C04D
:101430008A2D867809F0B394A3FC11C0A0FE06C0E3
:10144000B21488F4280C922C9B180EC0B21460F4CD
:10145000B60180E290E00E94930AB394F7CFB214F1
:1014600018F42B1802C0982C212CA4FE10C0B60131
:1014700080E390E00E94930AA2FE17C0A1FC03C083
:1014800088E790E002C088E590E0B6010CC08A2DA4
:10149000867859F0A1FE02C08BE201C080E2A7FC71
:1014A0008DE2B60190E00E94930A891438F4B601E7
:1014B00080E390E00E94930A9A94F7CF8A94F30114
:1014C000E80DF11D8081B60190E00E94930A811021
:1014D000F5CF222009F442CEB60180E290E00E94CE
:1014E000930A2A94F6CFF6018681978102C08FEF86
:1014F0009FEF2B96E2E10C94490BFC0105906150A3
:1015000070400110D8F7809590958E0F9F1F089519
:10151000FC016150704001900110D8F780959095C2
:101520008E0F9F1F08950F931F93CF93DF93FB019F
:10153000238121FD03C08FEF9FEF2CC022FF16C037
:1015400046815781248135814217530744F4A08195
:10155000B1819D012F5F3F4F318320838C93268182
:1015600037812F5F3F4F3783268314C08B01EC01F7
:10157000FB010084F185E02D0995892BE1F6D80166
:1015800016968D919C911797019617969C938E9322
:101590001697CE01DF91CF911F910F910895FA0117
:1015A000AA27283051F1203181F1E8946F936E7FA2
:1015B0006E5F7F4F8F4F9F4FAF4FB1E03ED0B4E093
:1015C0003CD0670F781F891F9A1FA11D680F791FD4
:1015D0008A1F911DA11D6A0F711D811D911DA11DE5
:1015E00020D009F468943F912AE0269F11243019F5
:1015F000305D3193DEF6CF010895462F4770405D90
:101600004193B3E00FD0C9F7F6CF462F4F70405D3E
:101610004A3318F0495D31FD4052419302D0A9F799
:10162000EACFB4E0A6959795879577956795BA9593
:10163000C9F700976105710508959B01AC010A2E59
:1016400006945795479537952795BA95C9F7620F30
:10165000731F841F951FA01D08952F923F924F92D4
:101660005F926F927F928F929F92AF92BF92CF9232
:10167000DF92EF92FF920F931F93CF93DF93CDB73B
:10168000DEB7CA1BDB0B0FB6F894DEBF0FBECDBFB3
:1016900009942A88398848885F846E847D848C8484
:1016A0009B84AA84B984C884DF80EE80FD800C818D
:1016B0001B81AA81B981CE0FD11D0FB6F894DEBF70
:0C16C0000FBECDBFED010895F894FFCFE0
:1016CC0000009B000000000000007B0100000000F7
:1016DC0008011601000000002C06000000000000AC
:1016EC00000200000000A70700000000000100003D
:1016FC005541525420696E696369616C697A616401
:10170C006120636F6D20257520626175642E0A005F
:10171C00526563656269646F3A20256320283078CE
:10172C0025303258290A0048656C6C6F2066726F40
:10173C006D2041726475696E6F2055415254210DB4
:10174C000A004D656E736167656D20656E76696123
:04175C0064612E0096
:00000001FF
